:020000040800F2
:10000000A01200209D010008992800088D1C0008FE
:1000100095280008D9070008213D000800000000CD
:100020000000000000000000000000004D3A000841
:10003000DD070008000000009D280008513A000874
:10004000B7010008B7010008B7010008B7010008B0
:10005000B7010008B7010008B7010008B7010008A0
:10006000B7010008B7010008B7010008B701000890
:10007000B7010008B7010008B7010008B701000880
:10008000B7010008B7010008B7010008B701000870
:10009000B7010008B7010008B7010008B701000860
:1000A000B7010008B7010008B7010008B701000850
:1000B000B7010008B7010008B7010008B701000840
:1000C000B7010008B7010008B7010008B701000830
:1000D000B7010008153D0008B7010008B701000886
:1000E000B7010008B7010008B7010008B701000810
:1000F000B7010008B7010008B7010008B701000800
:10010000B7010008B7010008B7010008B7010008EF
:10011000B7010008B7010008B7010008B7010008DF
:10012000B7010008B7010008B7010008B7010008CF
:10013000B7010008B7010008B7010008B7010008BF
:10014000B7010008B7010008B7010008B7010008AF
:10015000B7010008B7010008B7010008B70100089F
:10016000B7010008B7010008B7010008B70100088F
:10017000B7010008B7010008B7010008000000003F
:10018000B7010008B7010008DFF80CD000F0E0FA72
:100190000048004729400008A01200200648804778
:1001A00006480047FEE7FEE7FEE7FEE7FEE7FEE75C
:1001B000FEE7FEE7FEE7FEE70D3B000889010008C9
:1001C0002DE9F05F0546002092469B46884606468C
:1001D000814640241BE0284641464746224600F01F
:1001E00003F953465A46C01A914110D31146184696
:1001F000224600F0EAF82D1A67EB01084F46224626
:100200000120002100F0E1F817EB00094E41201E0B
:10021000A4F10104DFDC484631462A464346BDE8E6
:10022000F09F40EA01039B0703D009E008C9121FB1
:1002300008C0042AFAD203E011F8013B00F8013BA0
:10024000521EF9D27047D2B201E000F8012B491ECC
:10025000FBD270470022F6E710B513460A46044663
:100260001946FFF7F0FF204610BD421E12F8013F6D
:10027000002BFBD111F8013B02F8013B002BF9D117
:10028000704710B5044604E00B7800F8013B03B159
:10029000491C521EF8D2204610BD421C10F8011B0A
:1002A0000029FBD1801A7047034611F8012B00F892
:1002B000012B002AF9D1184670472DE9FE4F81EA3B
:1002C000030404F0004421F0004100944FF0000BBF
:1002D00023F0004350EA01045ED052EA03045BD0ED
:1002E000C3F30A54C1F30A552C44A4F2F334019425
:1002F000A0FB0254C1F3130141F48011C3F31303B3
:1003000043F4801301FB024400FB034E840A970A66
:1003100044EA815447EA8357A4FB076802958D0A93
:1003200005FB07854FEA932C04FB0C542705029D1F
:100330004FEA065847EA1637B5EB08056EEB070C8F
:10034000870E920E47EA811742EA8312A7FB020149
:10035000B6EB0B0164EB00042B0D43EA0C335E1883
:1003600044EB1C50DA465146E7FB0201C5F3130487
:100370004FEA0B3343EA14534FEA0432019C43EA39
:100380000603A4F10C040294009CCDE900B400F033
:100390004AF803B0BDE8F08F00200146F9E730B518
:1003A0000B46014600202022012409E021FA02F533
:1003B0009D4205D303FA02F5491B04FA02F52844CD
:1003C000151EA2F10102F1DC30BD202A04DB203A27
:1003D00000FA02F1002070479140C2F1200320FA98
:1003E00003F3194390407047202A04DB203A21FA96
:1003F00002F00021704721FA02F3D040C2F120023E
:10040000914008431946704710B5141E73F100045B
:1004100008DA401C41F1000192185B411A4301D1F6
:1004200020F0010010BD2DE9F04D92469B4611B120
:10043000B1FA81F202E0B0FA80F220329046FFF782
:10044000C4FF04460F4640EA0A0041EA0B01534646
:100450005A46084313D0114653EA010019D0C8F197
:1004600040025046FFF7C0FF05460E46504659462B
:100470004246FFF7AAFF084305D0012004E02046CA
:100480003946BDE8F08D0020054346EAE0762C436E
:1004900037430A986305E40AA0EB08000022FD0A2E
:1004A00044EA47540A3002D500200146E9E7010535
:1004B00010196941DDE9084500196941BDE8F04DB1
:1004C000A2E72DE9FE4F804681EA0300C00F0C46EB
:1004D000009021F0004123F00045B8EB0200A94153
:1004E00005D24046214690461C460B46024623F064
:1004F0000040104347D0270DC7F30A00C3F30A5149
:100500000290401A019040286BDAC3F3130040F4C4
:10051000801B0098924620B10023D2EB030A63EBC4
:100520000B0B01985946C0F140025046FFF74DFFB2
:1005300006460D4650465946019A00F021F910EB47
:1005400008006141002487EA115284EAE7731A43E4
:1005500040D0009A62B3019A012A4FEA075215DC93
:10056000001B61EB02014FF0004202EA0752CDE9A5
:100570000042001C41F5801132462B46FFF753FF25
:1005800003B0BDE8F08F40462146F9E7001B61EB60
:100590000201001C41F5801300185B412018A2F5F0
:1005A000001747EB030140EAD570B6196D4111E021
:1005B0006D084FEA360645EAC0754FEA0752001B40
:1005C00061EB0201001C41F5801149084FEA30003F
:1005D0000019514132462B4603B0BDE8F04FFFF7FA
:1005E00013BF0098012240000023D0EB020263EB0E
:1005F000E073009821464FEAE074B8EB000061EB2D
:100600000401E9E783F000435BE781F0004158E72C
:100610002DE9F04D81EA030404F0004B21F0004580
:1006200014464FF0000A23F0004150EA050220D0A2
:1006300054EA01021DD0C5F30A570246C5F313035D
:10064000C1F31300C1F30A5640F4801543F480133C
:10065000A7EB0608101BD64608F2FD3873EB050021
:1006600002D308F1010801E092185B41B8F1000FD4
:1006700003DA00200146BDE8F08D00204FF4801120
:10068000064684460EE0171B73EB050705D3121BC5
:1006900063EB050306434CEA010C49084FEA3000BE
:1006A00092185B4150EA0107EDD152EA030012D0E3
:1006B00082EA040083EA0501084305D0101BAB4120
:1006C00006D20122002306E000224FF0004302E0A0
:1006D0006FF0010253101AEB06004CEB085110EBBF
:1006E0000A0041EB0B01BDE8F04DFFF78DBEC1F3F1
:1006F0000A52C1F3130140F2FF3341F480119A42D0
:1007000002DA00200146704740F233439A42A2F2D7
:10071000334202DC5242FFF767BEFFF756BE0000CD
:1007200030B5041E71F1000404DB4FF00044404278
:1007300064EB0101141E73F1000405DB1C464FF04D
:100740000043524263EB0403994208BF904230BD1C
:100750001CB509480090094801900546009C06E038
:10076000E06840F0010394E8070098471034AC4279
:10077000F6D3FFF70DFD0000906D0008B06D000886
:10078000202A06DBCB17203A41FA02F043EAE07355
:1007900006E041FA02F3D040C2F120029140084342
:1007A0001946704710B541F20004C4F20204204615
:1007B0004FF40071002200F05FF920464FF4007101
:1007C000012200F059F920464FF400710022BDE8E3
:1007D000104000F051B90000FEE700007047000033
:1007E000EFF3108072B600BFFEE7000070B5866DB3
:1007F000044600F047F994F83510022928D105463F
:100800002068216C026822F016020260426922F020
:100810008002426109B9A16C19B1016821F0080197
:100820000160016821F00101016000BF20680068DB
:10083000C00715D000F026F9401B0628F6D320206B
:100840006065032084F83500002184F8341070BD01
:10085000802060650120002184F8341070BD00BF45
:10086000E06D3F2101FA00F0B060012084F835000E
:100870000020002184F8341070BD000090F835107D
:10088000022909D1052180F835100068016821F09E
:1008900001010160002070478021416501207047FF
:1008A000B0B5044600F0EEF8054640F20C00C2F286
:1008B00000000078611C18BF044400BF00F0E2F89B
:1008C000401BA042FAD3B0BD2DE9F04F83B000F138
:1008D000200200F13E4741F60045009207F1FF7704
:1008E000C4F2020508224FEAB726A84208BF072231
:1008F00000254FF000084FF00009072E38BF4FEADF
:10090000B72201920AE000BF09F1010908F10208CB
:10091000B9F1100F05F1040500F0A2800F68012263
:1009200002FA09FE17EA0E0AEED0D1F804C003223B
:100930000CF003077E1E02FA08F4012E6FEA040B86
:1009400012D88468CE6804EA0B0406FA08F6344329
:100950008460446824EA0E06CCF3001404FA09F417
:100960002643466004E000BF032F01D103271EE0A9
:10097000C6688C6806EA0B0604FA08F42643022FC0
:10098000C66014D16FF00302009E02EA590756F8C0
:1009900007C005F01C040F220B69A2402CEA0202DA
:1009A000A3401A43F251D1F804C00CF003070268C7
:1009B00007FA08F302EA0B021A431CF4403F0260F4
:1009C000A2D0002243F644030292C4F202031A6842
:1009D00043F6004442F480421A601A68C4F20104EB
:1009E00002F480420292029A29F003024FF6084C68
:1009F0002244CFF6FF7C52F80C3005F00C070F268E
:100A0000BE40B343019E06FA07F73B4342F80C3061
:100A1000A2684B6842EA0A0743F60C4CDE0258BF54
:100A200022EA0A07A760C4F2010CDCF800209E024B
:100A300042EA0A0758BF22EA0A07CCF80070626847
:100A40009E0342EA0A0758BF22EA0A076760226843
:100A5000DB0342EA0A0758BF22EA0A07276053E786
:100A600003B0BDE8F08F0000426902EA0103914340
:100A700041EA034181617047002A08BF090481618E
:100A80007047000040F69C40C2F2000000687047CA
:100A900040F20C0040F69C41C2F20000C2F200019C
:100AA00000780A68104408607047000080B543F67B
:100AB0000040C4F20200016841F400710160016865
:100AC00041F480610160016841F48071016003209C
:100AD00000F086F80F2000F005F800F027F800205D
:100AE00080BD000070B540F20C06C2F2000640F274
:100AF00030013278C2F200014FF47A730968B3FB17
:100B0000F2F20446B1FBF2F1084600F031FD0F2C81
:100B10004FF0010508D838B94FF0FF3021460022C8
:100B2000002500F031F87460284670BD82B00020C6
:100B300043F640010190C4F202014A6842F4804247
:100B40004A604A6802F480420192019A0090086863
:100B500040F080500860086800F0805000900098D5
:100B600002B07047002848BF704700F01F01012203
:100B700002FA01F11C2202EAD0004EF20012CEF27B
:100B8000000281507047000010B54EF60C5CCEF2AA
:100B9000000CDCF80030C3F3022E8EF00704042CA6
:100BA00028BF0424BEF103034FF0FF3E0EFA04F405
:100BB00038BF0023A14399400EFA03F39A4311432F
:100BC00000F00F0200F160430901043A03F56443A9
:100BD0006244002848BF02F10C03197010BD0000E8
:100BE0004EF60C51CEF200010A684FF6FF031A4090
:100BF00060F30A2242F0806040F0FD7008607047A8
:100C0000F0B581B00446006810F0050F2DD06827BC
:100C1000C4F2472743F670060020C4F2020638608B
:100C2000FFF730FF054600BF56F8700C000105D5F0
:100C3000FFF728FF401B0228F6D93FE0D4E9010165
:100C4000090741EA8010706101203860FFF71AFF40
:100C5000054600BF56F8700C000105D4FFF712FFDF
:100C6000401B0228F6D929E0206880074FF00000D9
:100C700058D543F67006C4F20206009056F8300CC0
:100C800047F2000740F0805046F8300C56F8300C20
:100C9000C4F2000700F0805000900098386840F4DB
:100CA00080703860FFF7EEFE054600BF3868C0056B
:100CB00008D4FFF7E7FE401B0228F7D9032001B054
:100CC000F0BD00BF306810F4407013D0E16801F44B
:100CD000407188420ED0306840F64061C4F247212E
:100CE000012220F440700A6000220A6030603068FF
:100CF000C00719D1E06856F8681C4FF6FF4300F4AE
:100D0000407221F4F811C0F6FF730340B2F5407F42
:100D100008BF194346F8681C31686FF31F30084359
:100D20003060002001B0F0BDFFF7ACFE054641F297
:100D3000883700BF30688007DCD4FFF7A3FE401B74
:100D4000B8424FF00300F5D9ECE70000002804BFDB
:100D5000012070472DE9F04143F60808C4F202086B
:100D60000446D8F8F8030D4600F00700884207D281
:100D700088F8F853D8F8F80300F00700A84277D1B4
:100D80002068810717D5410705D5D8F8001041F430
:100D9000E051C8F80010010705D5D8F8001041F45B
:100DA0006041C8F80010D8F80010A26821F0F001E6
:100DB0001143C8F80010C00740D1D8F8F80300F07C
:100DC0000700A84207D988F8F853D8F8F80300F0CC
:100DD0000700A8424CD12068410707D5D8F8001079
:100DE000E26821F4E0511143C8F80010000708D56B
:100DF000D8F80000216920F4604040EAC100C8F83A
:100E0000000000F07DF8D8F8001044F66442C1F309
:100E10000311C0F60002515C40F2300220FA01F1E9
:100E200040F21000C2F200000068C2F2000211603D
:100E3000FFF758FE0020BDE8F08100BF6068811E0A
:100E4000022907D258F8081C89015CBF0120BDE8BF
:100E5000F08111E0012807D158F8081C89035CBF14
:100E60000120BDE8F08107E058F8081C890703D489
:100E70000120BDE8F08100BFD8F8001021F0030187
:100E80000843C8F80000FFF7FDFD064641F2883729
:100E9000D8F80000616800F00C00B0EB810F8CD036
:100EA000FFF7F0FD801BB842F2D90320BDE8F081C6
:100EB00040F2300043F60801C2F20000C4F2020121
:100EC0000068096844F67442C1F38221C0F600024A
:100ED000515CC8407047000040F2300043F6080102
:100EE000C2F20000C4F202010068096844F67442CC
:100EF000C1F34231C0F60002515CC84070470000A7
:100F000010B543F60404C4F20204606800F00C015A
:100F100042F200400829C0F2F40007D0042918BFAB
:100F200010BD41F20020C0F27A0010BD216801F02E
:100F30003F02216823684902C3F3881106D4A1FB4C
:100F400000010023FFF73CF907E000BF41F2002059
:100F5000C0F27A004843B0FBF2F021680222C1F3EC
:100F6000014102EB4101B0FBF1F010BD002804BFCC
:100F7000012070472DE9F04182B00446007843F625
:100F80000006C007C4F202060CD0B06800F00C00E6
:100F9000042840F081803068800303D56068002811
:100FA00000F06881207880071BD5B06810F00C0F26
:100FB00009D0B06800F00C00082840F08780706805
:100FC000400200F183803068800703D5E068012883
:100FD00040F050813068216920F0F80040EAC100FB
:100FE00030602078000713D4207840072AD4A56900
:100FF000002D00F03A81B06800F00C00082840F0A5
:10100000A580012D40F00E81012002B0BDE8F081E5
:101010006069002800F082800020C4F2472001218E
:10102000C0F8801EFFF72EFD054600BF706F8007D9
:10103000DAD4FFF727FD401B0228F7D9032002B0BE
:10104000BDE8F081306C5FEAC0080AD4002001904E
:10105000306C40F080503064306C00F08050019073
:10106000019847F20007C4F200073868C00547D46A
:10107000386840F480703860FFF704FD054600BF13
:101080003868C0053CD4FFF7FDFC401B0228F7D9A7
:10109000032002B0BDE8F081B06800F00C00082821
:1010A00003D1706840023FF576AF61683068B1F5F2
:1010B000803F07D0B1F5A02F40F09A8040F4802007
:1010C0003060306840F4803030609AE0E06800289A
:1010D00040F20000C4F247205CD001210160FFF71C
:1010E000D1FC0546306880073FF574AFFFF7CAFCB6
:1010F000401B0228F6D9032002B0BDE8F08100BFF2
:10110000A168306F012905D0052955D140F00400B0
:101110003067306F40F00100306756E00020C4F2C5
:1011200047200021C0F8801EFFF7ACFC054600BF39
:10113000706F80077FF558AFFFF7A4FC401B0228B3
:10114000F6D9032002B0BDE8F08100BF0027C4F249
:10115000472700203866FFF795FC022D05460DD184
:101160003068800140F18A80FFF78CFC401B022828
:101170004FF00300F4D902B0BDE8F081306880017F
:1011800073D5FFF77FFC401B02284FF00300F5D911
:10119000F1E700BF00210160FFF774FC054600BFC6
:1011A000306880077FF51DAFFFF76CFC401B0228FD
:1011B0004FF00300F4D9DEE720F001003067306F14
:1011C000002920F0040030677AD0FFF75BFC054669
:1011D00041F28837306F800700F18480FFF752FCBE
:1011E000401BB842F6D9032002B0BDE8F08100BF31
:1011F00020F4803030603068002920F48020306096
:101200007AD0FFF73FFC0546306880033FF5CAAE51
:10121000FFF738FC401B6428F6D9032002B0BDE874
:10122000F08100BF7068E16900F480028A4221D138
:10123000216A00F03F028A421CD147F6C071626AFF
:101240000140B1EB821F15D1A16A4FF6FF73C903AC
:10125000994300F44032A1F580318A420AD1E16A13
:1012600000F07060B0EB016F04D1002002B0BDE867
:10127000F08100BF012002B0BDE8F08104F11C053F
:101280002FCD084340EA8210D9034FF6FF729143F5
:10129000A1F5803140EA056008437060012038669E
:1012A000FFF7F0FB044600BF30688001DDD4FFF794
:1012B000E9FB001B02284FF00300F5D95BE700BFF4
:1012C000FFF7E0FB054641F2883700BF306F80072B
:1012D00008D5FFF7D7FB401BB8424FF00300F5D904
:1012E00049E700BFB8F1000F3FF581AE306C20F048
:1012F000805030647BE600BFFFF7C4FB054600BFAB
:10130000306880037FF54EAEFFF7BCFB401B6428BE
:101310004FF00300F4D92EE7002804BF01207047E6
:10132000B0B50446407F20B900202077204600F069
:101330006BF8022060772168CA2048625320486217
:10134000C868400614D4C86840F08000C860FFF741
:1013500099FB2168CA6852060AD40546FFF792FB3A
:10136000401BB0F57A7F47D82168C8684006F5D59C
:1013700088684FF6BF72CFF68F7210408860D4E94C
:10138000010CD4E90335626928438D681043284372
:1013900088600B61086940EA0C400861C86820F069
:1013A0008000C8608868800618D4C86820F0A00053
:1013B000C860FFF767FB05462168C86880060DD442
:1013C000FFF760FB401BB0F57A7FF5D9042060770A
:1013D00021680120FF224A62B0BD00BF086C20F4E2
:1013E00080200864A0690A6C1043086401206077BB
:1013F0000020FF224A62B0BD042060772168C868DF
:101400000120FF224A62B0BD80B584B0006842F678
:101410000002C4F20002002190420291019101D029
:1014200004B080BD022000904FF4807003906846A5
:10143000FFF7E6FB002818BFFFF7D2F940F63C6043
:10144000C4F247200121016004B080BD70B528B10D
:10145000416A29B100210161142106E0012070BD1B
:101460004168B1F5827F02D01C2100224250002643
:10147000866290F8511029B980F85060054600F056
:101480003DF82846022180F8511090E82E0002F421
:1014900082720C6803F4044324F040040C601A4484
:1014A00005F4006305691A4405F0020345691A440E
:1014B00005F001038569C4691A4405F400731A44F0
:1014C00004F03803046A1A4404F08003846A1A435F
:1014D00004F400531A430A60436A042202EA1542E4
:1014E00003F010031A444A60CA6922F40062CA6118
:1014F0000121466580F85110304670BD80B586B038
:1015000043F600410068C4F20001002288420592BF
:10151000CDE903220292019202D006B080BD00BF45
:1015200043F630000092C4F20200036943F4004322
:101530000361036903F400430093009B0092036876
:1015400043F002030360006800F00200009000987E
:10155000282001900220CDE90202032004900620F9
:10156000059001F5E43001A9FFF7AEF906B080BDA2
:10157000411E0020B0EB116F1CBF012070474EF2DE
:101580001002CEF2000251604EF62351CEF200015D
:10159000F0230B70072190601160704770470000C6
:1015A00070470000B0B582B001680A68CC684B692A
:1015B00002F02F05202D04F0200505D125B102B041
:1015C000BDE8B04002F0B2BA5FEA027C1EBF03F091
:1015D000010E04F4907313EB0E0341D1036BD50697
:1015E00018D5012B16D114F0100313D0002201924C
:1015F0000A6801924A680192019A496949064BD4E6
:10160000818DC28DC38D002B18BF914240F0F281B5
:1016100002B0B0BD13062DD514F080032AD090F887
:101620003D20212AF4D18268B2F5805F03D102699E
:10163000002A00F06382026A531C036212784A6037
:10164000C28C013A1304C284E2D1C86820F0800041
:10165000C860C86840F04000C86002B0B0BD00BFBC
:10166000D30718BF14F4807340F0CE80530700F105
:10167000D180D6E05206CBD514F04002C8D0CA685B
:1016800022F04002CA60202180F83D1002B0BDE87F
:10169000B04000F0F9BA00BF826B11684B689DB290
:1016A000002DB5D0818D8D42B2D2C385D269B2F5FD
:1016B000807F00F0A180016851E8031F026821F4D7
:1016C000807142E80313DBB1016851E8031F02682F
:1016D00021F4807142E8031393B1016851E8031FBC
:1016E000026821F4807142E803134BB1016851E8AC
:1016F000031F026821F4807142E80313002BDAD142
:10170000016851E8051F026821F0010142E8051354
:10171000BBB3016851E8051F026821F0010142E8EE
:10172000051373B3016851E8051F026821F0010138
:1017300042E805132BB3016851E8051F026821F048
:10174000010142E80513002BDAD11AE0016851E8E3
:10175000051F026821F0400142E80513DBB1016872
:1017600051E8051F026821F0400142E8051393B1DA
:10177000016851E8051F026821F0400142E80513A5
:101780004BB1016851E8051F026821F0400142E8B1
:101790000513002BDAD1202180F83E1000210163CF
:1017A000016851E8031F026821F0100142E80313A9
:1017B000DBB1016851E8031F026821F0100142E823
:1017C000031393B1016851E8031F026821F010016F
:1017D00042E803134BB1016851E8031F026821F08E
:1017E000100142E80313002BDAD1816B044608464E
:1017F000FEF7FCFFA18D2046C28D891A89B202B086
:10180000BDE8B040FFF7CABE036C43F001030364B8
:10181000530706D5BEF1000F03D0036C43F002035B
:101820000364930706D5BEF1000F03D0036C43F0A9
:1018300004030364BCF1000F06D55EEA050303D080
:10184000036C43F008030364036C002B3FF4E0AE29
:10185000920605D525B1044602F068F921682046B4
:101860004969026C01F0400102F00802891800F099
:10187000B98000BF016851E8031F026821F490712C
:1018800042E80313BBB3016851E8031F026821F467
:10189000907142E8031373B3016851E8031F0268B3
:1018A00021F4907142E803132BB3016851E8031F40
:1018B000026821F4907142E80313002BDAD11AE098
:1018C000016851E8051F026821F0010142E8051393
:1018D000DBB1016851E8051F026821F0010142E80F
:1018E000051393B1016851E8051F026821F0010159
:1018F00042E805134BB1016851E8051F026821F069
:10190000010142E80513002BDAD1016B012924D132
:10191000016851E8031F026821F0100142E8031337
:10192000DBB1016851E8031F026821F0100142E8B1
:10193000031393B1016851E8031F026821F01001FD
:1019400042E803134BB1016851E8031F026821F01C
:10195000100142E80313002BDAD1202180F83E1059
:101960000021016301684969490640F1C1800168AD
:1019700051E8051F026821F0400142E80513DBB180
:10198000016851E8051F026821F0400142E8051393
:1019900093B1016851E8051F026821F0400142E857
:1019A00005134BB1016851E8051F026821F04001A1
:1019B00042E80513002BDAD1816B002900F09880F2
:1019C00043F62132C0F60002044608460A65FEF7D7
:1019D00055FF00283FF41CAEA06B016D02B0BDE8BE
:1019E000B04008470446FFF7DBFD0020206402B04A
:1019F000B0BD00BF891A00BF026852E8032F036818
:101A000022F4907243E80325BDB3026852E8032F25
:101A1000036822F4907243E8032575B3026852E824
:101A2000032F036822F4907243E803252DB3026864
:101A300052E8032F036822F4907243E80325002D37
:101A4000DAD11AE0026852E8052F036822F0010299
:101A500043E80525DDB1026852E8052F036822F04E
:101A6000010243E8052595B1026852E8052F036895
:101A700022F0010243E805254DB1026852E8052F26
:101A8000036822F0010243E80525002DDAD1202267
:101A900080F83E2000220263026852E8032F0368A8
:101AA00022F0100243E80325DDB1026852E8032F5B
:101AB000036822F0100243E8032595B1026852E85A
:101AC000032F036822F0100243E803254DB102689A
:101AD00052E8032F036822F0100243E80325002D8B
:101AE000DAD189B202B0BDE8B040FFF757BD00BF00
:101AF00002B0BDE8B040FFF753BD00BF026A32F844
:101B0000023B6FF35F234B60026299E5002804BF3C
:101B10000120704710B5044690F83D0028B9002018
:101B200084F83C00204600F021F8242084F83D0091
:101B30002068C16821F40051C160204602F076F8A7
:101B40002068016921F490410161416921F02A0175
:101B50004161C16841F40051C1600020202120642E
:101B600084F83D1084F83E1010BD000080B586B0AA
:101B700041F200010068C4F201010022884205928E
:101B8000CDE903220292019202D006B080BD00BFCF
:101B900043F630000092C4F20200436943F01003A0
:101BA0004361436903F010030093009B00920368B4
:101BB00043F001030360006800F00100009000980A
:101BC0004FF4C06001900220CDE90202032004908E
:101BD0000720059001F5704001A9FEF775FE25204C
:101BE00000210022FEF7D0FF2520FEF7BBFF06B044
:101BF00080BD000090F83E30202B0BD100294FF023
:101C0000010318BF002A01D11846704790F83C30F4
:101C1000012B03D102231846704700BF0023036342
:101C2000816222218285C285036480F83E100269A8
:101C3000016880F83C301AB1C86840F48070C86010
:101C4000486940F001004861C86840F02000C86061
:101C500018467047006841F20001C4F20101884251
:101C600018BF704710B540F69404C2F20004207803
:101C700002F0F4FA40F63410C2F2000021460122CC
:101C8000BDE81040FFF7B6BF70470000FEE7000058
:101C900040F69800C2F2000044F2402140F2FF33C7
:101CA000C0F20F01438340F6FF73C1F6FF73C0E932
:101CB0000011C0E9021142F6FF7141F20004002256
:101CC000C0F812306FF0FC23C0F2FF31C4F20204FE
:101CD0000282C361C0F8161080F8202020464FF41D
:101CE0000061FEF7C9FE20464FF400610122FEF7B5
:101CF000C3FE20464FF400610022FEF7BDFE07A29E
:101D000001200321012302F00DF840F22C02C2F25F
:101D1000000202200221012302F004F8D00000009A
:101D200070B540F23804C2F20004608AA18A01381A
:101D30000139182682B28BB200200021C4F20206BB
:101D400000F004FB40F6DC00C2F2000000684FF631
:101D5000BF72016811400160016841F400610160D7
:101D6000016841F0400101604FF000413160618A3B
:101D7000A28A02FB01F32BB3E168042B03F00302F8
:101D800040D2FAB1C16083689B0709D483689B077E
:101D90005CBF83685FEA837302D483689B07F2D5D4
:101DA000012A0FD0C16083689B0709D483689B0711
:101DB0005CBF83685FEA837302D483689B07F2D5B4
:101DC000022A61D18168090609D58168090644BFE4
:101DD00081685FEA016102D581680906F2D44FF497
:101DE0000041316001684FF6BF7211400160016827
:101DF0004FF2FF7211400160016841F04001016043
:101E000070BD00BF23F00303002402E004349C42B1
:101E1000B7D0C1608568AD070AD48568AD075CBFDF
:101E200085685FEA857503D48568AD07F2D500BF84
:101E3000C1608568AD0709D48568AD075CBF85685A
:101E40005FEA857502D48568AD07F2D5C160856803
:101E5000AD0709D48568AD075CBF85685FEA857505
:101E600002D48568AD07F2D5C1608568AD07CDD4D1
:101E70008568AD075CBF85685FEA8575C6D48568EF
:101E8000AD07F2D5C2E700BFC1608168890799D468
:101E9000816889075CBF81685FEA81713FF592AF15
:101EA00081688907F1D58DE72DE9F04F83B01827B8
:101EB000C4F202074FF000433B6040F23803C2F225
:101EC0000003D3F800C040F2940ABCF80870C2F2D4
:101ED000000A002F0291019000F0A480203ADCF863
:101EE0000000D3E9029B5FFA82FE00250022002455
:101EF00009E000BF00223C468A46BCF80870013564
:101F0000BD4280F0918007FB0E06514616F8058011
:101F1000A6B25FEAC8774F4608BF5F462AF8167038
:101F2000561CBCF804701FFA86FABA4504F1010782
:101F3000E0D0BEB25FEA88774F4658BF5F4621F8CF
:101F40001670961CBCF80470B3B2BB4204F10207D1
:101F50008A464FD05FEA4876BBB24E4658BF5E46CF
:101F60002AF81360D61CBCF80430B7B29F4204F1C3
:101F700003073FD05FEA0876BBB24E4658BF5E46C5
:101F80002AF81360161DBCF80430B7B29F4204F162
:101F900004072FD05FEAC866BBB24E4658BF5E4604
:101FA0002AF81360561DBCF80430B7B29F4204F102
:101FB00005071FD05FEA8866BBB24E4658BF5E4633
:101FC0002AF81360961DBCF80430B7B29F4204F1A2
:101FD00006070FD05FEA4866BBB24E4658BF5E4662
:101FE0002AF81360D61DBCF80430B7B29F4204F142
:101FF000070703D100223C467FE700BF4FFA88F66F
:1020000002F10803BAB2002E4E4658BF5E462AF8C7
:102010001260BCF804609AB20834921B18BF1A46CA
:102020006BE700BFBCF804600198BCF8062081197A
:102030004F1E02990A44531EBAB29BB200F086F9B1
:1020400040F23800C2F20000016840F6DC00C2F243
:10205000000000688A88C98803684FF6BF773B4054
:1020600003600368514343F4006303600368182569
:1020700043F0400202604FF000420B04C4F202053C
:102080002A602BD08AB2042A01F0030148D2002230
:1020900021B33AF81230C36083689B0709D4836880
:1020A0009B075CBF83685FEA837302D483689B07E6
:1020B000F2D5012912D00AEB42025388C36083682B
:1020C0009B0709D483689B075CBF83685FEA8373BF
:1020D00002D483689B07F2D502296BD18168090677
:1020E00009D58168090644BF81685FEA016102D5AC
:1020F00081680906F2D44FF40041296001684FF667
:10210000BF721140016001684FF2FF72114001601F
:10211000016841F04001016003B0BDE8F08F00BFED
:1021200022F00303002202E004329A42B0D03AF8CF
:102130001270C7608768BF070AD48768BF075CBF93
:1021400087685FEA877703D48768BF07F2D500BF47
:102150000AEB42077E88C6608668B6070AD486689E
:10216000B6075CBF86685FEA867603D48668B607E2
:10217000F2D500BFBE88C6608668B6070AD48668F6
:10218000B6075CBF86685FEA867603D48668B607C2
:10219000F2D500BFFF88C7608768BF07C4D48768CF
:1021A000BF075CBF87685FEA8777BDD48768BF07D2
:1021B000F2D5B9E79188C160816889073FF58EAF94
:1021C000816889075CBF81685FEA81713FF586AFEE
:1021D00081688907F0D581E7F0B581B040F2380712
:1021E000C2F2000714467A8A82420FD905460E468B
:1021F00022785AB1A8B23146FFF756FE386801344A
:1022000080880544788AA9B28142F1D301B0F0BD3B
:102210002DE9F04F83B0161A0D46044648BF7642AA
:10222000581B48BF4042A2424FF0010B4FF001073C
:1022300038BF4FF0FF3BAB4231B203B238BF4FF073
:10224000FF3799420EDA0021CDE9011B4FF0000B58
:102250001946334606460FFA86F8B8F1000F0BD53B
:1022600070E000BF0023CDE90173002703460FFA99
:1022700086F8B8F1000F65D488B201EBD03018268B
:1022800000B2C4F20206C0F34F0918B24FF0000AC0
:10229000009019E000985C4400FA89F001B2B1EBBB
:1022A0000809B8BF81460298A8BF04443D4401987C
:1022B0004145A8BF05440AF101000FFA80FAC24562
:1022C0004FF4004030603DDCA0B2A9B202460B469C
:1022D00000F03CF84FF00040306040F23800C2F2AD
:1022E0000000018940F6DC00C2F2000000680A0A22
:1022F000C2608268920709D4826892075CBF8268D4
:102300005FEA827202D482689207F2D5C160816866
:10231000890709D4816889075CBF81685FEA817198
:1023200002D481688907F2D581680906B2D581682F
:10233000090644BF81685FEA0161ABD5816809067F
:10234000F2D4A7E703B0BDE8F08F00002DE9F04F0D
:1023500081B040F218098A46C4F202094FF00041E8
:1023600040F6DC06C9F80010C2F200063168984653
:10237000174605468868000609D58868000644BFE8
:1023800088685FEA006002D588680006F2D440F6EB
:102390000044C4F2020420464FF400510022FEF72C
:1023A0006BFB30682A21C160816889070AD4816883
:1023B00089075CBF81685FEA817103D481688907FE
:1023C000F2D500BF8168090609D58168090644BFB6
:1023D00081685FEA016102D581680906F2D420466E
:1023E0004FF400510122FEF747FB40F2380BC2F2D6
:1023F000000B9BF81610481982B23068130AC360AC
:1024000083689B0709D483689B075CBF83685FEA86
:10241000837302D483689B07F2D5C26082689207F7
:1024200009D4826892075CBF82685FEA827202D434
:1024300082689207F2D5394489B20A0AC26082687A
:10244000920709D4826892075CBF82685FEA827251
:1024500002D482689207F2D5C1608168890709D4E5
:10246000816889075CBF81685FEA817102D48168F5
:102470008907F2D58168090609D58168090644BF34
:1024800081685FEA016102D581680906F2D42046BD
:102490004FF400510022FEF7EFFA30682B21C160A3
:1024A000816889070AD4816889075CBF81685FEA0F
:1024B000817103D481688907F2D500BF816809065C
:1024C00009D58168090644BF81685FEA016102D5C8
:1024D00081680906F2D420464FF400510122FEF72C
:1024E000CBFA9BF8171001EB0A0082B23068130A8E
:1024F000C36083689B0709D483689B075CBF8368BC
:102500005FEA837302D483689B07F2D5C260826856
:10251000920709D4826892075CBF82685FEA827280
:1025200002D482689207F2D5414489B20A0AC26095
:102530008268920709D4826892075CBF82685FEA6A
:10254000827202D482689207F2D5C16081688907DD
:102550000AD4816889075CBF81685FEA817103D40E
:1025600081688907F2D500BF8168090609D58168AD
:10257000090644BF81685FEA016102D581680906E6
:10258000F2D420464FF400510022FEF775FA30686D
:102590002C21C160816889070AD4816889075CBFE2
:1025A00081685FEA817103D481688907F2D500BF31
:1025B0008168090609D58168090644BF81685FEA18
:1025C000016102D581680906F2D420464FF400511A
:1025D0000122FEF751FA30688168090609D5816841
:1025E000090644BF81685FEA016102D58168090676
:1025F000F2D44FF40040C9F8000001B0BDE8F08FFC
:1026000040F23801C2F20001086070474FF478418F
:102610004FF4FC6201EA102102EA5012C0F3C40038
:102620001144084440F23801C2F20001C86070470A
:102630004FF478414FF4FC6201EA102102EA501293
:10264000C0F3C4001144084440F23801C2F2000152
:10265000886070472DE9F04F87B0002443F63000C2
:102660000694CDE90444CDE902440194C4F2020089
:10267000016840F6000641F0040101600168C4F2FF
:10268000020601F004010191019901940168002200
:1026900041F080010160016801F080010191019920
:1026A0000194016841F002010160016801F002013A
:1026B000019101990194016841F0100101600168E4
:1026C00001F01001019101990194016841F00801A4
:1026D0000160016801F0080101910199019401680C
:1026E00041F0010101600068212100F0010001902A
:1026F00001983046FEF7C0F9A6F5806040F2074128
:1027000000220090FEF7B8F906F5006A50468021D5
:1027100001224FF0010BFEF7AFF950464FF4FE4196
:102720000022FEF7A9F906F5806738464FF480517C
:102730000022FEF7A1F938464FF400510122FEF7BE
:102740009BF9A6F5006948464FF400410122FEF7C7
:1027500093F9112002ADCDE9030430462946CDF8A6
:1027600008B00594FEF7B0F82020CDE9020B4FF039
:102770000208304629460494CDF81480FEF7A4F8E8
:1027800040F20740CDE9020B00982946CDE9044804
:10279000FEF79AF84FF4FF40CDE9020B5046294668
:1027A000CDE90448FEF790F84FF44050CDE9020B14
:1027B00038462946CDE90444FEF786F84FF4004038
:1027C000CDE9020B48462946CDE90444FEF77CF8E2
:1027D00007B0BDE8F08F000080B540F6BC0042F6BF
:1027E0000001C2F20000C4F2000100227F234FF07A
:1027F000FF0C80E80E10C0E904228261FEF78CFD18
:10280000002808BF80BDBDE88040FDF7E9BF00009B
:1028100080B540F6DC0043F60041C2F20000C4F28D
:1028200000014FF4827200234FF4007C80E80E0018
:102830000A21C0E90333C0E9053CC361C0E908339C
:10284000C0E90A31FEF702FE002808BF80BDBDE8DE
:102850008040FDF7C5BF000080B540F6341041F25E
:102860000001C2F20000C4F2010100234FF00C0C81
:102870004FF4E13280E80E00C0E90333C0E905C33C
:10288000C361FFF743F9002808BF80BDBDE8804061
:10289000FDF7A6BFFEE70000FEE70000704700005E
:1028A0002DE9F04140F6DC06C2F20006306840F245
:1028B00018080168C4F2020841F040010160016893
:1028C00041F4804101600A20FDF7EAFF4FF000402B
:1028D000C8F8000030688168090609D581680906D2
:1028E00044BF81685FEA016102D581680906F2D4BC
:1028F00040F60044C4F2020420464FF40051002286
:10290000FEF7BAF830683621C1608168890709D4BA
:10291000816889075CBF81685FEA817102D4816840
:102920008907F2D58168090609D58168090644BF7F
:1029300081685FEA016102D581680906F2D4204608
:102940004FF400510122FEF797F830680021C16072
:10295000816889070AD4816889075CBF81685FEA5A
:10296000817103D481688907F2D500BF81680906A7
:1029700009D58168090644BF81685FEA016102D513
:1029800081680906F2D420464FF400510022FEF778
:1029900073F830683A21C160816889070AD4816878
:1029A00089075CBF81685FEA817103D48168890708
:1029B000F2D500BF8168090609D58168090644BFC0
:1029C00081685FEA016102D581680906F2D4204678
:1029D0004FF400510122FEF74FF830680521C16025
:1029E000816889070AD4816889075CBF81685FEACA
:1029F000817103D481688907F2D500BF8168090617
:102A000009D58168090644BF81685FEA016102D582
:102A100081680906F2D420464FF400510022FEF7E7
:102A20002BF83068B221C160816889070AD48168B7
:102A300089075CBF81685FEA817103D48168890777
:102A4000F2D500BF8168090609D58168090644BF2F
:102A500081685FEA016102D581680906F2D42046E7
:102A60004FF400510122FEF707F830680C21C160D5
:102A70008168890709D4816889075CBF81685FEA3A
:102A8000817102D481688907F2D50C21C160816807
:102A9000890709D4816889075CBF81685FEA817111
:102AA00002D481688907F2D50021C1608168890755
:102AB00009D4816889075CBF81685FEA817102D4AB
:102AC00081688907F2D53321C1608168890709D4FB
:102AD000816889075CBF81685FEA817102D481687F
:102AE0008907F2D53321C160816889070AD48168DA
:102AF00089075CBF81685FEA817103D481688907B7
:102B0000F2D500BF8168090609D58168090644BF6E
:102B100081685FEA016102D581680906F2D4204626
:102B20004FF400510022FDF7A7FF3068B721C160C4
:102B3000816889070AD4816889075CBF81685FEA78
:102B4000817103D481688907F2D500BF81680906C5
:102B500009D58168090644BF81685FEA016102D531
:102B600081680906F2D420464FF400510122FDF796
:102B700083FF30683521C160816889070AD4816884
:102B800089075CBF81685FEA817103D48168890726
:102B9000F2D500BF8168090609D58168090644BFDE
:102BA00081685FEA016102D581680906F2D4204696
:102BB0004FF400510022FDF75FFF3068BB21C16078
:102BC000816889070AD4816889075CBF81685FEAE8
:102BD000817103D481688907F2D500BF8168090635
:102BE00009D58168090644BF81685FEA016102D5A1
:102BF00081680906F2D420464FF400510122FDF706
:102C00003BFF30681921C160816889070AD4816857
:102C100089075CBF81685FEA817103D48168890795
:102C2000F2D500BF8168090609D58168090644BF4D
:102C300081685FEA016102D581680906F2D4204605
:102C40004FF400510022FDF717FF3068C021C1602A
:102C5000816889070AD4816889075CBF81685FEA57
:102C6000817103D481688907F2D500BF81680906A4
:102C700009D58168090644BF81685FEA016102D510
:102C800081680906F2D420464FF400510122FDF775
:102C9000F3FE30682C21C160816889070AD48168FD
:102CA00089075CBF81685FEA817103D48168890705
:102CB000F2D500BF8168090609D58168090644BFBD
:102CC00081685FEA016102D581680906F2D4204675
:102CD0004FF400510022FDF7CFFE3068C221C160E1
:102CE000816889070AD4816889075CBF81685FEAC7
:102CF000817103D481688907F2D500BF8168090614
:102D000009D58168090644BF81685FEA016102D57F
:102D100081680906F2D420464FF4005101220127B0
:102D2000FDF7AAFE3068C760816889070AD4816808
:102D300089075CBF81685FEA817103D48168890774
:102D4000F2D500BF8168090609D58168090644BF2C
:102D500081685FEA016102D581680906F2D42046E4
:102D60004FF400510022FDF787FE3068C321C16097
:102D7000816889070AD4816889075CBF81685FEA36
:102D8000817103D481688907F2D500BF8168090683
:102D900009D58168090644BF81685FEA016102D5EF
:102DA00081680906F2D420464FF400510122FDF754
:102DB00063FE30681221C160816889070AD4816886
:102DC00089075CBF81685FEA817103D481688907E4
:102DD000F2D500BF8168090609D58168090644BF9C
:102DE00081685FEA016102D581680906F2D4204654
:102DF0004FF400510022FDF73FFE3068C421C1604E
:102E0000816889070AD4816889075CBF81685FEAA5
:102E1000817103D481688907F2D500BF81680906F2
:102E200009D58168090644BF81685FEA016102D55E
:102E300081680906F2D420464FF400510122FDF7C3
:102E40001BFE30682021C160816889070AD481682F
:102E500089075CBF81685FEA817103D48168890753
:102E6000F2D500BF8168090609D58168090644BF0B
:102E700081685FEA016102D581680906F2D42046C3
:102E80004FF400510022FDF7F7FD3068C621C16004
:102E9000816889070AD4816889075CBF81685FEA15
:102EA000817103D481688907F2D500BF8168090662
:102EB00009D58168090644BF81685FEA016102D5CE
:102EC00081680906F2D420464FF400510122FDF733
:102ED000D3FD30680F21C160816889070AD48168F9
:102EE00089075CBF81685FEA817103D481688907C3
:102EF000F2D500BF8168090609D58168090644BF7B
:102F000081685FEA016102D581680906F2D4204632
:102F10004FF400510022FDF7AFFD3068D021C160B1
:102F2000816889070AD4816889075CBF81685FEA84
:102F3000817103D481688907F2D500BF81680906D1
:102F400009D58168090644BF81685FEA016102D53D
:102F500081680906F2D420464FF400510122FDF7A2
:102F60008BFD3068A421C1608168890709D481681C
:102F700089075CBF81685FEA817102D48168890733
:102F8000F2D5A121C1608168890709D481688907C8
:102F90005CBF81685FEA817102D481688907F2D5DC
:102FA0008168090609D58168090644BF81685FEA1E
:102FB000016102D581680906F2D420464FF4005120
:102FC0000022FDF759FD3068E021C1608168890762
:102FD0000AD4816889075CBF81685FEA817103D484
:102FE00081688907F2D500BF8168090609D5816823
:102FF000090644BF81685FEA016102D5816809065C
:10300000F2D420464FF400510122FDF735FD30681F
:10301000D021C1608168890709D4816889075CBFB4
:1030200081685FEA817102D481688907F2D5042141
:10303000C1608168890709D4816889075CBF81689C
:103040005FEA817102D481688907F2D50D21C160E0
:103050008168890709D4816889075CBF81685FEA54
:10306000817102D481688907F2D51121C16081681C
:10307000890709D4816889075CBF81685FEA81712B
:1030800002D481688907F2D51321C160816889075C
:1030900009D4816889075CBF81685FEA817102D4C5
:1030A00081688907F2D52B21C1608168890709D41D
:1030B000816889075CBF81685FEA817102D4816899
:1030C0008907F2D53F21C1608168890709D48168E9
:1030D00089075CBF81685FEA817102D481688907D2
:1030E000F2D55421C1608168890709D481688907B4
:1030F0005CBF81685FEA817102D481688907F2D57B
:103100004C21C1608168890709D4816889075CBF47
:1031100081685FEA817102D481688907F2D518213C
:10312000C1608168890709D4816889075CBF8168AB
:103130005FEA817102D481688907F2D50D21C160EF
:103140008168890709D4816889075CBF81685FEA63
:10315000817102D481688907F2D50B21C160816831
:10316000890709D4816889075CBF81685FEA81713A
:1031700002D481688907F2D51F21C160816889075F
:1031800009D4816889075CBF81685FEA817102D4D4
:1031900081688907F2D52321C1608168890709D434
:1031A000816889075CBF81685FEA817102D48168A8
:1031B0008907F2D58168090609D58168090644BFE7
:1031C00081685FEA016102D581680906F2D4204670
:1031D0004FF400510022FDF74FFC3068E121C1603F
:1031E000816889070AD4816889075CBF81685FEAC2
:1031F000817103D481688907F2D500BF816809060F
:1032000009D58168090644BF81685FEA016102D57A
:1032100081680906F2D420464FF400510122FDF7DF
:103220002BFC3068D021C1608168890709D481688E
:1032300089075CBF81685FEA817102D48168890770
:10324000F2D50421C1608168890709D481688907A2
:103250005CBF81685FEA817102D481688907F2D519
:103260000C21C1608168890709D4816889075CBF26
:1032700081685FEA817102D481688907F2D51121E2
:10328000C1608168890709D4816889075CBF81684A
:103290005FEA817102D481688907F2D51321C16088
:1032A0008168890709D4816889075CBF81685FEA02
:1032B000817102D481688907F2D52C21C1608168AF
:1032C000890709D4816889075CBF81685FEA8171D9
:1032D00002D481688907F2D53F21C16081688907DE
:1032E00009D4816889075CBF81685FEA817102D473
:1032F00081688907F2D54421C1608168890709D4B2
:10330000816889075CBF81685FEA817102D4816846
:103310008907F2D55121C1608168890709D4816884
:1033200089075CBF81685FEA817102D4816889077F
:10333000F2D52F21C1608168890709D48168890786
:103340005CBF81685FEA817102D481688907F2D528
:103350001F21C1608168890709D4816889075CBF22
:1033600081685FEA817102D481688907F2D51F21E3
:10337000C1608168890709D4816889075CBF816859
:103380005FEA817102D481688907F2D52021C1608A
:103390008168890709D4816889075CBF81685FEA11
:1033A000817102D481688907F2D52321C1608168C7
:1033B000890709D4816889075CBF81685FEA8171E8
:1033C00002D481688907F2D58168090609D5816828
:1033D000090644BF81685FEA016102D58168090678
:1033E000F2D420464FF400510022FDF745FB30682F
:1033F0002121C160816889070AD4816889075CBF7F
:1034000081685FEA817103D481688907F2D500BFC2
:103410008168090609D58168090644BF81685FEAA9
:10342000016102D581680906F2D420464FF40051AB
:103430000122FDF721FB30688168090609D5816802
:10344000090644BF81685FEA016102D58168090607
:10345000F2D420464FF400510022FDF70DFB3068F6
:103460001121C160816889070AD4816889075CBF1E
:1034700081685FEA817103D481688907F2D500BF52
:103480008168090609D58168090644BF81685FEA39
:10349000016102D581680906F2D420464FF400513B
:1034A0000122FDF7E9FA7820FDF7FAF93068816822
:1034B000090609D58168090644BF81685FEA016190
:1034C00002D581680906F2D420464FF4005100224B
:1034D000FDF7D2FA30682921C1608168890709D4D3
:1034E000816889075CBF81685FEA817102D4816865
:1034F0008907F2D58168090609D58168090644BFA4
:1035000081685FEA016102D581680906F2D420462C
:103510004FF400510122FDF7AFFA306881680906C7
:1035200009D58168090644BF81685FEA016102D557
:1035300081680906F2D44FF4004140F23807C8F818
:103540000010C2F20007002179744FF00041C8F862
:1035500000108168090609D58168090644BF8168A1
:103560005FEA016102D581680906F2D420464FF472
:1035700000510022FDF780FA30683621C160816871
:10358000890709D4816889075CBF81685FEA817116
:1035900002D481688907F2D58168090609D5816856
:1035A000090644BF81685FEA016102D581680906A6
:1035B000F2D420464FF400510122FDF75DFA306845
:1035C0007021C1608168890709D4816889075CBF5F
:1035D00081685FEA817102D481688907F2D5002190
:1035E000F98240F24011C0F2F001C7F81210816870
:1035F000090609D58168090644BF81685FEA01614F
:1036000002D581680906F2D44FF40040C8F80000E2
:1036100000204FF6FF71C7E90210002140F23F126F
:10362000EF23FEF793FE30684FF6BF72016811403A
:103630000160016841F400610160016841F04001EE
:1036400001604FF00041C8F80010798ABA8A02FB85
:1036500001F32BB3F968042B03F003024ED2FAB145
:10366000C16083689B0709D483689B075CBF83683C
:103670005FEA837302D483689B07F2D5012A0FD0D7
:10368000C16083689B0709D483689B075CBF83681C
:103690005FEA837302D483689B07F2D5022A6FD155
:1036A0008168090609D58168090644BF81685FEA17
:1036B000016102D581680906F2D44FF40041C8F8CF
:1036C000001001684FF6BF721140016001684FF2AF
:1036D000FF72114001600168002341F04001016068
:1036E00040F22000C2F20000386020464FF48051C2
:1036F00001223B74BDE8F041FDF7BEB923F003039E
:10370000002602E004369E42A9D0C1608568AD075C
:103710000AD48568AD075CBF85685FEA857503D408
:103720008568AD07F2D500BFC1608568AD0709D4D3
:103730008568AD075CBF85685FEA857502D48568DA
:10374000AD07F2D5C1608568AD0709D48568AD07BE
:103750005CBF85685FEA857502D48568AD07F2D5E0
:10376000C1608568AD07CDD48568AD075CBF85684D
:103770005FEA8575C6D48568AD07F2D5C2E700BF9C
:10378000C160816889073FF58BAF816889075CBF9D
:1037900081685FEA81713FF583AF81688907F0D561
:1037A0007EE700002DE9F04F8DB015460E46044629
:1037B000FCF773FD00F101082846FCF76EFD40445C
:1037C000013001F019FA21468146FCF76DFDFCF746
:1037D00064FD3A2129F8001048462946FCF745FDCA
:1037E000FCF75BFD40F2500B0028C2F2000B53D0F7
:1037F000054604AC0096DBE900762028019028BF3E
:103800002025204649462A46FCF70BFD3B46002072
:10381000092F6055CDF8089010DA48F63961F01894
:10382000C3F6E301A0FB0112510801EBC101B2464E
:10383000461A01330393CBF800300EE048F63961A5
:10384000701CC3F6E301A0FB0112510801EBC1019A
:10385000A0EB010A0393CBF804A040F6781106EB25
:103860004610C2F2000104AF084439462022FCF79A
:1038700008FD002480F820400BEB060001210172B6
:1038800080F811800198009ADDF808900BEB860112
:103890002128CA6180F0B680484601F085F96FF0B2
:1038A0007F40FEF7B3FEFEF73BFA40F21400C2F28F
:1038B0000000FEF7A5FEDBF800000128C0F2C28080
:1038C0000DF11008002410E00020FEF7B1FE0AF10F
:1038D000130081B2002040F23F120B46FEF798FC25
:1038E000DBF80000844280F2AD80DBF8040048F68B
:1038F00039612044C3F6E30150FB01F14A1002EBA9
:10390000D17101EBC101A0EB01090020FEF790FE8F
:1039100004EB840040F678114FEA800A09EB491065
:10392000C2F200010E181FFA8AF50020294632461D
:10393000FEF752FC0BEB0900017AD9B1477CC7F1C5
:10394000210108EB0700202F88BF0021FCF782FC33
:10395000404631463A46FCF764FC0BEB8900C069EF
:10396000002108F80710FEF763FE002029464246B2
:10397000FEF732FCDBF8000001348442A4D009F1E8
:1039800001014AB239235A431312C2F3C03202EB87
:10399000530202EBC202891A4BFA81F1097A00291B
:1039A00092D19FE748F639610AEB0300C3F6E301C1
:1039B000A0FB0112510801EBC1010133D046A0EB7D
:1039C000010A0393CBF8003040F678110AEB4A1055
:1039D000C2F20001084439462022FCF752FC80F86C
:1039E00020400BEB0A00DDF80890047244740BEBE6
:1039F0008A00C46148463544FCF74FFC8542C24604
:103A0000BFF44AAF461B2020202E28BF064609EBF4
:103A1000050138463246FCF704FC039BBC55082BD5
:103A2000C0DD48F639610AF10100C3F6E301A0FBED
:103A30000112510801EBC101A0EB0108CBF8048091
:103A4000C2E700BF0DB0BDE8F08F00007047000076
:103A5000FDF71EB870B592B006AC20463021FCF7D9
:103A6000F9FB002543F640000595CDE90355CDE966
:103A700001550095C4F202000168022641F0805110
:103A80000160006800F080500090009847F200004C
:103A90000095C4F20000016841F4804101600068B3
:103AA00000F4804000900098052006904FF480308C
:103AB0000790012008904FF480000D9008200E9090
:103AC0004FF4A870CDE90F060720119020460C9600
:103AD000FDF74CFA20B1EFF3108072B6FEE700BF9D
:103AE0000F20CDE901064FF4A05004904FF4805010
:103AF000059001A805210395FDF728F920B1EFF302
:103B0000108072B6FEE700BF12B070BD4EF688504E
:103B1000CEF20000016841F47001016070470000BE
:103B2000806B0021C185C184FDF73ABD81B090F85A
:103B30003E10222921D183680246B3F5805F09D166
:103B400052F8281F52F8183C002B63D003685B68BA
:103B50000AE000BF52F8281F13B90369002BF5D003
:103B600003685B6803F07F030B701168013111601B
:103B7000C18D01390A04C18502D001B0704700BF70
:103B80000168CA6822F02002CA60CA6822F4807202
:103B9000CA604A6922F001024A61202180F83E1081
:103BA000016B01293ED10021016300BF016851E88A
:103BB000031F026821F0100142E80313DBB1016822
:103BC00051E8031F026821F0100142E8031393B18A
:103BD000016851E8031F026821F0100142E8031355
:103BE0004BB1016851E8031F026821F0100142E85F
:103BF0000313002BDAD101680A68D20606D5002229
:103C000000920A680092496800910099818D01B084
:103C1000FDF7C4BC026852686FF35F2221F8022BE3
:103C20008162A5E701B0FEF715B80000B0B5044603
:103C3000006804F108030ECB0569194325F44055CB
:103C40002A4302616269E3691143C268194349F278
:103C50000C639A431143C1604169A26921F4407128
:103C600041F20043114340F48062C4F201039A42DE
:103C7000416103D1FDF730F902E000BFFDF718F90B
:103C8000E1694FF69C7563681922C0F6FF75B1F5BE
:103C9000004FA0FB02011FD15A00DB0FFCF790FA86
:103CA00048F21F51C5F2EB11A0FB01235A0905F19F
:103CB000805302FB0300322303EBC000A0FB010191
:103CC0004FF4F87000EA111000EB0210C1F342113A
:103CD000084421688860B0BD9A009B0FFCF770FA19
:103CE00048F21F51C5F2EB11A0FB01235A0902FB58
:103CF0000500322303EB0010A0FB0101F02000EAD5
:103D0000511000EB0210C1F3431108442168886090
:103D1000B0BD000040F63410C2F20000FDF742BC16
:103D2000FEE700002DE9F04740F20047C4F2020729
:103D300091468A4605463846022100229846FCF7FD
:103D40009BFE07F54064204680210022FCF794FE8C
:103D5000384602210022FCF78FFEEA0920464FF484
:103D60008071FCF789FE384602210122FCF784FEAF
:103D7000384602210022FCF77FFEC5F38012204660
:103D80004FF48071FCF778FE384602210122FCF7DF
:103D900073FE384602210022FCF76EFEC5F3401286
:103DA00020464FF48071FCF767FE3846022101225D
:103DB000FCF762FE384602210022FCF75DFEC5F3E7
:103DC000001220464FF48071FCF756FE384602215F
:103DD0000122FCF751FE384602210022FCF74CFE7E
:103DE000C5F3C00220464FF48071FCF745FE38460B
:103DF00002210122FCF740FE384602210022FCF796
:103E00003BFEC5F3800220464FF48071FCF734FE80
:103E1000384602210122FCF72FFE384602210022FB
:103E2000FCF72AFEC5F3400220464FF48071FCF7F0
:103E300023FE384602210122FCF71EFE38460221ED
:103E40000022FCF719FE05F0010220464FF48071B4
:103E5000FCF712FE384602210122FCF70DFE38461F
:103E600002210022FCF708FEBAF1000F00F0948056
:103E7000A9F1010515F8016F384602210022FCF76F
:103E8000FBFDF20920464FF48071FCF7F5FD384642
:103E900002210122FCF7F0FD384602210022FCF746
:103EA000EBFDC6F3801220464FF48071FCF7E4FD71
:103EB000384602210122FCF7DFFD384602210022AC
:103EC000FCF7DAFDC6F3401220464FF48071FCF790
:103ED000D3FD384602210122FCF7CEFD38460221EF
:103EE0000022FCF7C9FDC6F3001220464FF4807192
:103EF000FCF7C2FD384602210122FCF7BDFD384621
:103F000002210022FCF7B8FDC6F3C00220464FF4A0
:103F10008071FCF7B1FD384602210122FCF7ACFDAF
:103F2000384602210022FCF7A7FDC6F38002204696
:103F30004FF48071FCF7A0FD384602210122FCF706
:103F40009BFD384602210022FCF796FDC6F3400295
:103F500020464FF48071FCF78FFD38460221012284
:103F6000FCF78AFD384602210022FCF785FD06F0A9
:103F7000010220464FF48071FCF77EFD3846022195
:103F80000122FCF779FD384602210022FCF774FD7E
:103F9000BAF1010A7FF46EAFB8F1000F11D02046DC
:103FA0004FF400710022FCF767FD20464FF40071CA
:103FB0000122FCF761FD20464FF400710022FCF75E
:103FC0005BFD204680210122BDE8F047FCF754BD8F
:103FD00040F6A221C2F200018A88824212D900284A
:103FE00008BF7047088841F26F230130C0F2830395
:103FF000A0FB033C4FF4FA730CFB13000880501E27
:1040000088807047002008608880704740F6A220B2
:10401000C2F200008088704740F6A220C2F2000081
:1040200000210160818070479AB0FCF73FFDFFF7E7
:1040300011FDFEF70FFBFEF7CFFBFEF7E9FBFEF7E6
:104040000BFCFEF72DFC56A000F000F9FFF7E4FF93
:1040500040F6341040F69401C2F20000C2F20001B2
:104060000122FDF7C7FDFCF70DFD52A000F0EEF8B0
:10407000FDF70EFE6420FCF713FCFCF793FB52A047
:1040800000F0E4F855A000F0E1F840F2080640F234
:10409000900746F6245A46F65A5B40F60005C2F2EF
:1040A000000601ACC2F20007C0F6000AC0F6000B21
:1040B0000FF254180FF23419C4F202050AE000BFDF
:1040C0000120FFF785FF28460121FCF7CDFCC82021
:1040D000FCF7E6FBFFF79AFF0728F4D3FFF796FFFC
:1040E0000728EDD3002000F09DF85528E8D10420E2
:1040F00000F098F8FF28E3D1052000F093F8FF289E
:10410000DED1062000F08EF8FF28D9D1012000F082
:1041100089F805283CD8DFE800F00325151D0D2F90
:10412000022000F07FF846F6765102463070C0F665
:10413000000127E0022000F075F802467870414641
:1041400020E000BF022000F06DF8024638705146B2
:1041500018E000BF022000F065F80246B070594632
:1041600010E000BF022000F05DF846F63F51024625
:104170007070C0F6000105E0022000F053F802461E
:104180004946B870204600F08DF8204600F05EF8F1
:104190000720FFF71DFFFFF739FF06289ED892E79B
:1041A0004C434420496E697420537563636573738F
:1041B00000000000486D6920496E697420537563E2
:1041C0006365737300000000414439393539204973
:1041D0006E6974205375636365737300496E697407
:1041E0002053756363657373000000004273696751
:1041F0002064656C6179206368616E676564207412
:104200006F20256430C2B000427369672061747406
:10421000656E206368616E67656420746F20256435
:104220006462000040F6A221C2F200010A88104434
:1042300041F26F22C0F28302A0FB02234FF4FA7214
:1042400003FB12000844807970470000024602A078
:104250004FF47F01FFF7A6BA5359530040F6A22C42
:10426000C2F2000CBCF8042093087C2B88BF704776
:1042700010B5BCF802E041F26F230EF10101C0F26B
:104280008303A1FB03344FF4FA7304FB13110CEB0B
:104290000E039871501CACF80210ACF80400BDE895
:1042A000104070470FB4084B10B504A902AA039838
:1042B00000F0DEF8044602A9002000F070FC204661
:1042C00010BC5DF814FB00009F4B000802E008C81A
:1042D000121F08C1002AFAD170477047002001E080
:1042E00001C1121F002AFBD1704700002DE9FF5FBA
:1042F00082B00021DDE90430020DDDF840B0034357
:1043000018D044F61050A2F2FF324243151411980F
:1043100001281FD0A5EB0B00401C5FEA000A4FF0FC
:1043200000064E4FDFF83891B046504615D5CAF119
:10433000000413E0119801244AA3012801D16FEA77
:104340000B010298119AC0E90031C0E9024206B09F
:10435000BDE8F09FCBF10000DFE704460021404AB2
:10436000491842EB0450CDE9001012E0E00707D0F5
:1043700032463B4640464946FBF79FFF804689460A
:1043800032463B4610461946FBF797FF06460F4656
:104390006410002CEAD1DDE90401DDE90023BAF163
:1043A000000F06DAFBF789FF42464B46FBF785FF15
:1043B00005E0FCF72DF942464B46FCF729F9044687
:1043C0000E460022284BFCF7ABF903D84FF0FF3024
:1043D000014607E00022254B20463146FCF771F8E4
:1043E000FCF785F9102409E0002C0ADB0A220023DF
:1043F000FBF7E6FE039B30321A55641E50EA0102B9
:10440000F2D1641C039AC4F111031444119A012AD5
:1044100003D0012208430DD10AE0084304D0002054
:104420004FF0110B119072E7A3EB0B056D1E0DE021
:104430005B4504DD4FF0000205F1010504E003DAFD
:104440004FF00002A5F10105002AECD00298119965
:10445000C0E90231C0E9004579E7000000001440DE
:104460000000F03F300000000000F0430000E03F9B
:104470002DE9FF4F95B09B468946064600250FE281
:10448000252877D100242746F84A0121059400E029
:10449000044316F8013F203B01FA03F01042F7D124
:1044A00030782A2811D06FF02F033078A0F1300235
:1044B000092A16D8059A44F0020402EB820203EBA3
:1044C00042021044761C0590EFE759F8042B059240
:1044D000002A03DA504244F40054059044F00204E8
:1044E000761C30782E2816D116F8010F44F00404FB
:1044F0002A280DD06FF02F023078A0F13003092B5D
:1045000009D807EB870302EB4303C718761CF3E7D0
:1045100059F8047B761C30786C280FD006DC4C28C8
:1045200017D068280DD06A2814D104E0742810D060
:104530007A280FD10DE044F400140AE044F480140A
:1045400001E044F440147278824202D104F58014F0
:10455000761C761C307866280BD013DC582877D070
:1045600009DC002875D04528F6D04628F4D0472825
:104570001AD19DE118E0632835D0642879D06528E8
:1045800012D195E1702873D008DC6728F1D0692832
:104590006FD06E280DD06F2806D1B5E073282CD0CF
:1045A000752875D0782874D05A46179990476D1C95
:1045B00075E1C4F30250022809D003280DD0D9F8C0
:1045C000001004280DD00D6009F1040967E1D9F845
:1045D0000010EA17C1E90052F6E7D9F800100D8083
:1045E000F2E70D70F0E719F8041B8DF800100020B9
:1045F0008DF80100EA46012003E059F804AB4FF0C2
:10460000FF3061074FF0000102D40DE008F1010115
:104610008846B9420FDA8045F8DB1AF808100029FD
:10462000F4D108E008F1010188468142FADB1AF86A
:1046300008100029F6D105985B46A0EB0807214633
:104640003846179A00F094FA284400EB080507E072
:104650004DE029E10DE01AF8010B5A4617999047F1
:10466000B8F10108F7D25B4621463846179A13E1A4
:1046700042E00A220092C4F302524FF0000A022ADA
:1046800008D059F804CB032A4FEAEC710AD00DE0A8
:1046900029E02AE009F1070121F00702F2E802C14E
:1046A000914609E00FFA8CFC4FEAEC71042A03D121
:1046B0004FFA8CFC4FEAEC71002907DA0A46002118
:1046C000DCF1000C61EB02012D2202E0220504D591
:1046D0002B228DF80420012203E0E20701D02022E2
:1046E000F7E7904659E00A2102E010220DE0102180
:1046F0004FF0000A00910BE010224FF0000A44F046
:1047000004040827009203E008224FF0000A0092F8
:10471000C4F30252022A05D059F804CB0021032A1F
:1047200008D009E009F1070121F00702F2E802C10F
:10473000914605E01FFA8CFC042A01D10CF0FF0C15
:104740004FF00008220728D5702806D0009B83F080
:10475000100353EA0A0305D00EE040228DF804202E
:10476000012208E05CEA010206D030228DF8042024
:104770008DF8050002229046009B83F0080353EA5F
:104780000A030AD15CEA010201D1620705D5302291
:104790008DF804204FF001087F1E582804D034A063
:1047A00003900EA802900DE036A0F9E7534660464C
:1047B000009AFBF705FD84460398825C0298401E30
:1047C000029002705CEA0100F0D1029806A9081A72
:1047D00000F1200A600702D524F4803400E00127AC
:1047E000574502DDA7EB0A0000E0002000EB0A01BC
:1047F000009005984144401A0590E00306D45B46BA
:104800002146179A059800F0B3F90544002706E001
:1048100001A85A46C05D179990476D1C7F1C4745FB
:10482000F6DBE0030CD55B462146179A059800F0AD
:104830009FF9054404E030205A46179990476D1CB3
:104840000099481E00900029F5DC08E002980299C2
:104850005A460078491C0291179990476D1CBAF18D
:104860000001AAF1010AF1DC65E10000092801005C
:1048700030313233343536373839616263646566D6
:104880000000000030313233343536373839414298
:10489000434445460000000000F058F90544761CEA
:1048A000307800287FF4ECAD19B02846BDE8F08FD1
:1048B000620700D4062709F1070222F0070CFCE882
:1048C0000223E14603F000485FEA080C02D00FF231
:1048D000702C0DE05FEA045C02D50FF2682C07E053
:1048E0005FEAC47C02D00FF2602C01E0AFF2700CE2
:1048F0004FF0FF3823F00043CDF850C065280CD0AE
:1049000006DC452809D046281DD047283DD13DE08A
:10491000662818D067287ED138E00021112F01DBEE
:10492000112000E0781CCDE9000106A90EA8FFF7D0
:10493000DDFCDDE90F010E9A03910021009207F1E1
:10494000010A04914DE04FF000400097CDE90110BD
:1049500006A90EA8FFF7CAFCDDE90F0203920E9B21
:1049600011990022DDF80CA00093049211B9791C72
:1049700000EB010AB7EB0A0004D4C0F1FF3007F1E5
:10498000010A0490AAEB0700019044E0012F00DA2D
:1049900001270021112F01DD112000E03846CDE96B
:1049A000000106A90EA8FFF7A1FCDDE90F010E9A90
:1049B0000391002104910092BA4621070CD4039977
:1049C000514500DA8A46BAF1010F05DD009AAAF1D5
:1049D0000101515C302908D0B84202DA10F1040F0D
:1049E00006DA0121CDE9011015E0AAF10101E9E79C
:1049F000002805DC049901440491AAEB000102E0BF
:104A0000411C514500DD8A460499401A401C019022
:104A10004FF000400290200704D40198504501DB7C
:104A2000CDF8048000208DF84F0002980DF14F075B
:104A3000B0F1004F25D02B200E9002984FF00208C5
:104A400000280CDA404202902D200E9007E00A2147
:104A50000298FBF7A4FC3031029007F8011DB8F171
:104A60000001A8F10108F2DC02980028EFD1791EBC
:104A70000E980870307800F0200040F0450007F8EC
:104A8000020D12A8C01B00F107081498007800B1AD
:104A9000012000EB0A01019801EBE0710598414407
:104AA000401A401E0590E00306D45B462146179A43
:104AB000059800F05DF805441498007818B15A463E
:104AC000179990476D1CE00324D55B462146179A41
:104AD000059800F04DF805441CE00498002807DB19
:104AE000DDE90301884203DD0098405C179901E08D
:104AF000179930205A469047049805F10105401C4B
:104B000004900198401E019004D12E205A46179916
:104B100090476D1CBAF10001AAF1010ADDDC05E045
:104B200017F8010B5A46179990476D1CB8F1000110
:104B3000A8F10108F4DC5B462146179A0598ABE61C
:104B40002D0000002B000000200000002DE9F041A6
:104B5000044600251E461746880404D405E039465D
:104B60002020B0476D1C641EF9D52846BDE8F081B1
:104B70002DE9F041044600251E469046C80301D5A4
:104B8000302700E02027880404D505E04146384658
:104B9000B0476D1C641EF9D52846BDE8F0810A684F
:104BA000531C0B601070704710B5002821D0114BBA
:104BB0000022001F196803E0814203D80A464968B1
:104BC0000029F9D152B11368841A9C4204D10068BB
:104BD00018441060104602E0506000E0186039B1DF
:104BE00002680B1A934203D10B681A4402604968A9
:104BF000416010BD00000020F0B50B30154D20F0D5
:104C000007010024144A0FE003688B420BD38B4248
:104C100005D95E1A43184768C3E9006700E0436896
:104C2000136002C004E0021D10680028ECD1204689
:104C3000002802D1286808B10020F0BD064A0748C4
:104C40001060074A121A22F00702C0E9002401206E
:104C50002860D7E70400002000000020A40C0020FA
:104C6000A00E00200000000000000000010203046C
:104C7000060708090000000001020304000000000C
:104C80000000000000000000000000000000000024
:104C90000000000000000000000000000000000014
:104CA0000000000000000000000030003000300074
:104CB00030003000200020002000200020000000F4
:104CC0000000300030000000000000000000D800AC
:104CD000D8006C002400120000000000000000005A
:104CE00000000000000000000000000000000000C4
:104CF00000000000000000000000000084008400AC
:104D00008400FF0184008400C60042004200FF01CD
:104D100042004200420000000000000000000000CD
:104D200000002000F80024012401A4012800300024
:104D30006000A00020012C0124012401F8002000C3
:104D40002000000000000000000000008600490074
:104D50004900290029001900D6002801280128014E
:104D600024012401C2000000000000000000000037
:104D7000000000000C00120012001200EA004600C1
:104D8000460025002900390011003201CC00000046
:104D90000000000000000600060004000200010000
:104DA0000000000000000000000000000000000003
:104DB00000000000000000000000000000000001F2
:104DC0008000400020002000200010001000100093
:104DD0001000100010002000200020004000800083
:104DE00000010000000001000200040008000800AB
:104DF0000800100010001000100010001000080043
:104E0000080008000400020001000000000000008B
:104E1000000000000000200020002603AE03700008
:104E20007000AE03260320002000000000000000F8
:104E30000000000000000000000000000000100062
:104E4000100010001000FF011000100010001000F2
:104E50000000000000000000000000000000000052
:104E60000000000000000000000000000000000042
:104E70000000000000000000000006000600040022
:104E8000020001000000000000000000000000001F
:104E9000000000000000FE03000000000000000011
:104EA0000000000000000000000000000000000002
:104EB00000000000000000000000000000000000F2
:104EC00000000000000000000000060006000000D6
:104ED00000000000000000020001000180008000CE
:104EE000C0004000600020003000100018000800E2
:104EF00008000400040002000000000000000000A0
:104F00000000000078008400840002010201020118
:104F10000201020102010201840084007800000005
:104F200000000000000000000000000010001C0055
:104F300010001000100010001000100010001000F1
:104F4000100010007C0000000000000000000000C5
:104F5000000000007C0082000201020102018000CA
:104F6000400020001000080004010201FE010000C2
:104F70000000000000000000000000003C004200B3
:104F800082008200400070008000000100010201E8
:104F9000020182007C000000000000000000000010
:104FA00000004000400060005000480048004400FD
:104FB00042004200FE01400040004000F0010000BD
:104FC000000000000000000000000000FC010400E0
:104FD00004000400040074008C00000100010201C0
:104FE000020182007C0000000000000000000000C0
:104FF00000000000F00008010401040002007A0033
:105000008600020102010201040184007800000010
:10501000000000000000000000000000FE0182000F
:1050200042004000200010001000080008000800A6
:105030000800080008000000000000000000000058
:1050400000000000780084000201020102018400D7
:10505000780084000201020102018400780000004F
:105060000000000000000000000000007800840044
:105070008200020102010201840178010001800026
:10508000820042003C000000000000000000000020
:1050900000000000000000000000300030000000B0
:1050A00000000000000000000000300030000000A0
:1050B00000000000000000000000000000000000F0
:1050C00000000000100000000000000000000000D0
:1050D0000000000010001000100010000000000090
:1050E00000008000400020001000080004000200C2
:1050F00004000800100020004000800000000000B4
:10510000000000000000000000000000000000009F
:105110000000FF01000000000000FF01000000008F
:10512000000000000000000000000000000000007F
:105130000000020004000800100020004000800071
:1051400040002000100008000400020000000000E1
:105150000000000000000000000078008400020150
:105160000601060100018000400020002000200010
:1051700000003000300000000000000000000000CF
:10518000000000007800C400F20159014901450106
:1051900025012501A500D900020184007800000046
:1051A00000000000000000000000000010001000DF
:1051B0002800280028002800440044007C00440007
:1051C00082008200C7010000000000000000000013
:1051D000000000003F0042004200420022003E006A
:1051E0004200820082008200820042003F000000F4
:1051F00000000000000000000000000078018401B1
:105200000201020101000100010001000100010191
:10521000020186007800000000000000000000008D
:10522000000000003F00C2008200020102010201F2
:105230000201020102010201820042003F0000005F
:10524000000000000000000000000000FF008200DD
:105250000201420042007E004200420002000200C1
:1052600002018200FF0000000000000000000000BA
:1052700000000000FF0082000201420042007E00A8
:10528000420042000200020002000200070000008B
:105290000000000000000000000000007001880114
:1052A0000401020102000200020082030201020165
:1052B00004010C01F00000000000000000000000EC
:1052C00000000000C701820082008200820082008C
:1052D000FE0082008200820082008200C70100007E
:1052E000000000000000000000000000FE001000B0
:1052F000100010001000100010001000100010002E
:1053000010001000FE00000000000000000000007F
:1053100000000000FC0120002000200020002000F0
:10532000200020002000200020002000210011008B
:105330000E0000000000000000000000E701420035
:105340002200220012001A00160022002200420051
:1053500042008200C70100000000000000000000C1
:10536000000000000700020002000200020002002C
:10537000020002000200020002018200FF000000A1
:10538000000000000000000000000000C701C6008F
:10539000C600C600AA00AA00AA00AA00AA0092009D
:1053A00092009200D7010000000000000000000001
:1053B00000000000C70186008A008A008A0092006F
:1053C0009200A200A200C200C200C200870000003A
:1053D0000000000000000000000000003800C600CF
:1053E000820001010101010101010101010101012D
:1053F0008200C6003800000000000000000000002D
:10540000000000007F008200020102010201820010
:105410007E000200020002000200020007000000FD
:105420000000000000000000000000003800C6007E
:1054300082000101010101010101010101011901C4
:10544000A600A60078004001C00000000000000097
:10545000000000003F0042008200820042003E0047
:105460001200220022004200420082008701000058
:10547000000000000000000000000000780184012E
:105480000201020002000C00700080000001020115
:10549000020186007A000000000000000000000009
:1054A00000000000FE0011011101100010001000AA
:1054B0001000100010001000100010003800000054
:1054C000000000000000000000000000C701820092
:1054D00082008200820082008200820082008200BC
:1054E00082004400380000000000000000000000BE
:1054F00000000000C7018200820044004400440014
:105500004400280028002800380010001000000087
:10551000000000000000000000000000BB0192003D
:10552000920092009200AA00AA00AA006A00440019
:10553000440044004400000000000000000000009F
:1055400000000000CE018400440048002800300024
:10555000100030002800480048008400CE01000000
:10556000000000000000000000000000C7018200F1
:105570004400440028002800100010001000100013
:1055800010001000380000000000000000000000C3
:1055900000000000FC018400820040004000200068
:1055A000100010000800080004018400FE00000044
:1055B000000000000000F0011000100010001000BA
:1055C000100010001000100010001000100010005B
:1055D000100010001000F0010000000000000000AA
:1055E0000200040004000800080008001000100079
:1055F000200020002000400040008000800080004B
:105600000001000000003E002000200020002000DB
:10561000200020002000200020002000200020008A
:105620002000200020003E000000000000003800A4
:1056300028004400000000000000000000000000FE
:10564000000000000000000000000000000000005A
:10565000000000000000000000000000000000004A
:10566000000000000000000000000000000000003A
:1056700000000000000000000000FF030000180010
:1056800020000000000000000000000000000000FA
:10569000000000000000000000000000000000000A
:1056A00000000000000000000000000000000000FA
:1056B000000000007C0082008200F0008C0082006C
:1056C0008200C202BC0300000000000000000000D5
:1056D0000000000003000200020002003A00460041
:1056E0008200820082008200820046003A000000B0
:1056F00000000000000000000000000000000000AA
:105700000000000078008400820002000200020015
:10571000020184007800000000000000000000008A
:1057200000000000C000800080008000B800C400BD
:1057300082008200820082008200C400B801000062
:105740000000000000000000000000000000000059
:1057500000000000780084000201FE010200020047
:10576000020184007800000000000000000000003A
:1057700000000000E001100210001000FC0010000A
:10578000100010001000100010001000FC000000BD
:105790000000000000000000000000000000000009
:1057A00000000000F8018400840084008400780078
:1057B00004007C00840102010201FC0000000000E2
:1057C0000000000003000200020002007A008600D0
:1057D000820082008200820082008200C7010000F5
:1057E0000000000000000000000000001800180089
:1057F000000000001C00100010001000100010003D
:10580000100010007C0000000000000000000000FC
:105810000000000060006000000000007000400018
:105820004000400040004000400040004000400078
:1058300022001E0000000000000000000300020023
:1058400002000200E200220012000A0016002200FC
:1058500042008200C70100000000000000000000BC
:10586000000000001E0010001000100010001000CA
:10587000100010001000100010001000FE000000CA
:105880000000000000000000000000000000000018
:10589000000000007F0092009200920092009200AF
:1058A00092009200B701000000000000000000001C
:1058B0000000000000000000000000007B008600E7
:1058C000820082008200820082008200C701000004
:1058D00000000000000000000000000000000000C8
:1058E00000000000780084000201020102010201B0
:1058F00002018400780000000000000000000000A9
:105900000000000000000000000000003B00460016
:105910008200820082008200820046003A0002007B
:10592000020007000000000000000000000000006E
:1059300000000000B800C4008200820082008200E3
:105940008200C400B80080008000C0010000000098
:10595000000000000000000000000000CE0128014F
:105960001800080008000800080008003E000000B9
:105970000000000000000000000000000000000027
:1059800000000000BC00C200820006003800C00019
:10599000820086007A000000000000000000000085
:1059A000000000000000100010001000FC001000BB
:1059B00010001000100010001000900060000000A7
:1059C00000000000000000000000000000000000D7
:1059D00000000000C300820082008200820082007A
:1059E0008200C200BC0100000000000000000000B6
:1059F000000000000000000000000000C70182005D
:105A0000440044004400280028001000100000005A
:105A10000000000000000000000000000000000086
:105A200000000000BB01920092009200AA00AA00B0
:105A3000440044004400000000000000000000009A
:105A4000000000000000000000000000CE01840003
:105A5000480030003000300048008400CE010000D3
:105A60000000000000000000000000000000000036
:105A700000000000EE01840088004800480050004B
:105A8000300020001000100010000C00000000008A
:105A9000000000000000000000000000FE004200C6
:105AA000220020001000080084008200FE00000098
:105AB0000000000000008001400040004000400065
:105AC00040004000600010006000400040004000C6
:105AD0004000400040004000800100002000200005
