:020000040800F2
:1000000078100024B1020008D93B00086D320008C6
:10001000D53B0008AD0800089D470008000000001F
:10002000000000000000000000000000374500084C
:10003000B108000800000000DD3B00083945000859
:10004000CB020008CB020008CB020008CB0200085C
:10005000CB020008CB020008CB020008CB0200084C
:10006000CB020008CB020008CB020008CB0200083C
:10007000CB020008CB020008CB020008CB0200082C
:10008000CB020008CB020008CB020008CB0200081C
:10009000CB020008CB020008CB020008CB0200080C
:1000A000CB020008CB020008CB020008CB020008FC
:1000B000CB020008CB020008CB020008CB020008EC
:1000C000CB020008CB020008CB020008CB020008DC
:1000D000CB020008CB020008CB020008CB020008CC
:1000E000CB020008CB02000800000000CB02000891
:1000F000CB020008CB020008CB020008CB020008AC
:10010000CB020008CB020008CB020008CB0200089B
:10011000CB020008CB020008CB020008CB0200088B
:10012000CB020008CB020008CB020008CB0200087B
:10013000CB020008CB020008CB020008CB0200086B
:1001400000000000000000000000000000000000AF
:10015000CB020008CB020008CB020008CB0200084B
:10016000CB020008CB020008CB020008CB0200083B
:10017000CB020008CB020008CB0200080000000000
:10018000CB020008CB020008CB020008CB0200081B
:10019000CB020008CB020008CB020008CB0200080B
:1001A000CB020008CB020008CB020008CB020008FB
:1001B000CB020008CB020008CB020008CB020008EB
:1001C000CB020008CB020008CB020008CB020008DB
:1001D000CB020008CB020008CB020008CB020008CB
:1001E000CB020008CB020008CB020008CB020008BB
:1001F000CB020008CB020008CB020008CB020008AB
:10020000CB020008CB020008CB020008CB0200089A
:10021000CB020008CB020008CB020008CB0200088A
:10022000CB020008CB020008CB020008000000004F
:10023000CB020008CB02000800000000CB0200083F
:10024000CB020008CB020008CB020008CB0200085A
:10025000CB020008CB020008CB020008CB0200084A
:10026000CB020008CB020008CB020008CB0200083A
:10027000CB020008CB020008CB02000800000000FF
:10028000CB020008CB020008CB02000800000000EF
:1002900000000000CB020008DFF810D000F066FA82
:1002A0000048004705510008AFF300807810002493
:1002B0000648804706480047FEE7FEE7FEE7FEE700
:1002C000FEE7FEE7FEE7FEE7FEE7FEE7A1460008E1
:1002D0009902000840EA01039B0703D009E008C91E
:1002E000121F08C0042AFAD203E011F8013B00F8FB
:1002F000013B521EF9D27047D2B201E000F8012B47
:10030000491EFBD270470022F6E710B513460A4695
:1003100004461946FFF7F0FF204610BD421E12F8B2
:10032000013F002BFBD111F8013B02F8013B002BF0
:10033000F9D1704710B5044604E00B7800F8013B92
:1003400003B1491C521EF8D2204610BD421C10F8C1
:10035000011B0029FBD1801A7047034611F8012BBD
:1003600000F8012B002AF9D11846704730B50B462A
:10037000014600202022012409E021FA02F59D42D5
:1003800005D303FA02F5491B04FA02F52844151EA9
:10039000A2F10102F1DC30BD2DE9F05F054600203D
:1003A00092469B4688460646814640241BE02846E6
:1003B00041464746224600F0FAF953465A46C01ACB
:1003C000914110D311461846224600F0E1F92D1A4A
:1003D00067EB01084F4622460120002100F0D8F9C2
:1003E00017EB00094E41201EA4F10104DFDC484652
:1003F00031462A464346BDE8F09F2DE9FE4F804630
:1004000081EA0300C00F0C46009021F0004123F068
:100410000045B8EB0200A94105D24046214690466E
:100420001C460B46024623F00040104347D0270DE0
:10043000C7F30A00C3F30A510290401A0190402802
:100440006BDAC3F3130040F4801B0098924620B18E
:100450000023D2EB030A63EB0B0B01985946C0F162
:100460004002504600F094F906460D465046594663
:10047000019A00F0ACF910EB08006141002487EA12
:10048000115284EAE7731A4340D0009A62B3019A8A
:10049000012A4FEA075215DC001B61EB02014FF005
:1004A000004202EA0752CDE90042001C41F58011EA
:1004B00032462B4600F0ACF903B0BDE8F08F404661
:1004C0002146F9E7001B61EB0201001C41F5801396
:1004D00000185B412018A2F5001747EB030140EA22
:1004E000D570B6196D4111E06D084FEA360645EA40
:1004F000C0754FEA0752001B61EB0201001C41F579
:10050000801149084FEA30000019514132462B460C
:1005100003B0BDE8F04F00F06CB900980122400034
:100520000023D0EB020263EBE073009821464FEA10
:10053000E074B8EB000061EB0401E9E783F00043ED
:100540005BE781F0004158E72DE9FE4F81EA0304A3
:1005500004F0004421F0004100944FF0000B23F020
:10056000004350EA01045ED052EA03045BD0C3F3B7
:100570000A54C1F30A552C44A4F2F3340194A0FBAD
:100580000254C1F3130141F48011C3F3130343F484
:10059000801301FB024400FB034E840A970A44EADD
:1005A000815447EA8357A4FB076802958D0A05FB2F
:1005B00007854FEA932C04FB0C542705029D4FEA54
:1005C000065847EA1637B5EB08056EEB070C870EA1
:1005D000920E47EA811742EA8312A7FB0201B6EBAB
:1005E0000B0164EB00042B0D43EA0C335E1844EB63
:1005F0001C50DA465146E7FB0201C5F313044FEAEB
:100600000B3343EA14534FEA0432019C43EA0603D6
:10061000A4F10C040294009CCDE900B400F0F8F8B9
:1006200003B0BDE8F08F00200146F9E72DE9F04D59
:1006300081EA030404F0004B21F0004514464FF01A
:10064000000A23F0004150EA050220D054EA0102DA
:100650001DD0C5F30A570246C5F31303C1F31300B7
:10066000C1F30A5640F4801543F48013A7EB060843
:10067000101BD64608F2FD3873EB050002D308F1D3
:10068000010801E092185B41B8F1000F03DA002085
:100690000146BDE8F08D00204FF4801106468446E7
:1006A0000EE0171B73EB050705D3121B63EB050365
:1006B00006434CEA010C49084FEA300092185B41AE
:1006C00050EA0107EDD152EA030012D082EA040099
:1006D00083EA0501084305D0101BAB4106D2012275
:1006E000002306E000224FF0004302E06FF0010219
:1006F00053101AEB06004CEB085110EB0A0041EBCB
:100700000B01BDE8F04D00F074B8C1F30A52C1F31B
:10071000130140F2FF3341F480119A4202DA0020C3
:100720000146704740F233439A42A2F2334202DC60
:10073000524200F03CB800F02BB8000030B5041E67
:1007400071F1000404DB4FF00044404264EB01010E
:10075000141E73F1000405DB1C464FF000435242A7
:1007600063EB0403994208BF904230BD064C074D2D
:1007700006E0E06840F0010394E807009847103471
:10078000AC42F6D3FFF78CFD5CBD00087CBD0008D1
:10079000202A04DB203A00FA02F100207047914041
:1007A000C2F1200320FA03F3194390407047202A36
:1007B00004DB203A21FA02F00021704721FA02F30B
:1007C000D040C2F120029140084319467047202AC8
:1007D00006DBCB17203A41FA02F043EAE07306E069
:1007E00041FA02F3D040C2F1200291400843194679
:1007F000704710B5141E73F1000408DA401C41F173
:10080000000192185B411A4301D120F0010010BD94
:100810002DE9F04D92469B4611B1B1FA81F202E00A
:10082000B0FA80F220329046FFF7B2FF04460F463E
:1008300040EA0A0041EA0B0153465A46084313D0E6
:10084000114653EA010019D0C8F140025046FFF7A3
:10085000AEFF05460E46504659464246FFF798FF02
:10086000084305D0012004E020463946BDE8F08D5C
:100870000020054346EAE0762C4337430A98630597
:10088000E40AA0EB08000022FD0A44EA47540A30BB
:1008900002D500200146E9E7010510196941DDE9AB
:1008A000084500196941BDE8F04DA2E700BFFEE729
:1008B000704772B600BFFEE702460868B0B9D1E9DA
:1008C00001031843CB6818430B6918434B6918435D
:1008D0008B691843CB6918430B6A18434B6A18435A
:1008E00013686FF30E031843106019E0D1E9070392
:1008F00018434B6A1843136823F4F84318431060F5
:10090000D1E901031843CB6818430B6918434B69BD
:1009100018438B69184353686FF30E0318435060F4
:10092000002070470246506943F6FE73984340EA40
:10093000410050610020704710B50346D1E9000422
:1009400020438C68641E40EA4410CC6840EA44208E
:100950001C696FF3150420431861002010BD0000CE
:1009600030B50346FAB90868401E4C68641E40EA78
:1009700004148868401E44EA0024C868401E44EA03
:100980000034088A401E44EA0044888A401E44EA33
:100990000054087E401E44EA00609C6804F07044E5
:1009A0002043986022E0C868401E0403888A401EE5
:1009B00044EA00509C680E4D2C4020439860086823
:1009C000401E4C68641E40EA04148868401E44EAD5
:1009D0000024088A401E44EA0044087E401E44EA7F
:1009E0000060DC6804F070442043D860002030BD13
:1009F000FF0F0FFF70B5044600F0F2F906462546DA
:100A0000681C10B104480078054400BF00F0E8F904
:100A1000801BA842FAD370BD0800002400B587B03F
:100A2000142102A8FFF76FFC00BF5C48006840F487
:100A300080505A4908600846006800F480500190D0
:100A400000BF00BF00BF55480C30006840F00400F4
:100A500052490C3108600846006800F0040001901B
:100A600000BF00BF00BF0846006840F008000860F3
:100A70000846006800F00800019000BF00BF00BFFA
:100A80000846006840F0100008600846006800F062
:100A90001000019000BF00BF00BF0846006840F092
:100AA000200008600846006800F02000019000BFA8
:100AB00000BF00BF0846006840F0400008600846DC
:100AC000006800F04000019000BF00BF00BF084672
:100AD000006840F0800008600846006800F0800070
:100AE000019000BF00BF4FF63F000290022003902C
:100AF00000200490032005900C20069002A92848AD
:100B000000F05AF80C20029002200390002004907C
:100B1000032005900C20069002A9224800F04CF812
:100B200048F2371002900220039000200490032026
:100B300005900C20069002A91B4800F03DF84FF6E6
:100B400083700290022003900020049003200590FF
:100B50000C20069002A9154800F02EF84CF2037004
:100B600002900220039000200490032005900C20A6
:100B7000069002A90E4800F01FF801200290022002
:100B8000039000200490032005900C20069002A9F9
:100B9000084800F011F807B000BD0000D444025826
:100BA00000140258001C0258001802580010025885
:100BB000000C025800080258F8B502460B46002106
:100BC0006F4DD7E001278F401E6806EA0704002C0E
:100BD00072D01E7906F00306012E04D01E7906F0AD
:100BE0000306022E13D190684F000326BE40B04387
:100BF0004F00DE68BE4030439060506801268E4052
:100C0000B0431E79C6F300168E40304350601E7903
:100C100006F00306032E09D0D0684F000326BE401D
:100C2000B0434F009E68BE403043D0601E7906F04E
:100C30000306022E13D1CF0802F1200656F8270032
:100C40004E07F70E0F26BE40B0434F07FF0E1E693A
:100C5000BE403043CF0802F1200646F82700106856
:100C60004F000326BE40B0431E7906F003064F0036
:100C7000BE40304310605E6806F44036002E78D0E7
:100C800000BF404E366846F002063E4F3E603E468C
:100C9000366806F00206009600BF00BF3A4E8F0885
:100CA00056F827008E07370F0F26BE40B043374E49
:100CB000B24202D100262EE05BE0354EB24201D1B5
:100CC000012628E0334EB24201D1022623E0324E03
:100CD000B24201D103261EE0304EB24201D10426B9
:100CE00019E02F4EB24201D1052614E02D4EB2423A
:100CF00001D106260FE02C4EB24201D107260AE0B0
:100D00002A4EB24201D1082605E0294EB24201D155
:100D1000092600E00A268F073F0FBE4030431A4ED7
:100D20008F0846F827004FF0B0463068A0435E6851
:100D300006F4801606B120434FF0B046306070686C
:100D4000A0435E6806F4001606B120434FF0B0469B
:100D500070606868A0435E6806F4003606B1204300
:100D600068602868A0435E6806F4803606B12043B8
:100D70002860491C1E68CE40002E7FF423AFF8BDCA
:100D800080000058F444025808040058000002583B
:100D90000004025800080258000C025800100258C3
:100DA0000014025800180258001C02580020025873
:100DB0000024025810B5426921EA020302EA010444
:100DC00043EA0443836110BD0AB1816101E00B0471
:100DD0008361704701480068000C70470010005C98
:100DE00001480068704700000000002403480068C4
:100DF000034909780844014908607047000000244D
:100E00000800002410B5032000F00CF901F092F95D
:100E100010490968C1F303210F4A515C01F01F0119
:100E200020FA01F40B48006800F00F001146085C3E
:100E300000F01F0024FA00F0084908600848046028
:100E40000F2000F00FF808B1012010BD00F09AF853
:100E50000020FAE718440258285500081000002422
:100E60000C00002470B504461148007808B9012030
:100E700070BD0F4800784FF47A71B1FBF0F00D4966
:100E80000968B1FBF0F5284602F0D6F908B1012057
:100E9000EEE7102C07D200222146501E00F084F805
:100EA0000548046001E00120E2E70020E0E70000DF
:100EB000080000240C000024040000244178154A96
:100EC000116014490831096821F00101114A083202
:100ED0001160121F41681160017B0907C27A41EA63
:100EE0000261827A41EAC241427B41EA8241827BCD
:100EF00041EA4241C27B41EA0241427A41EA02218F
:100F0000027A41EA420102781143024A0832116032
:100F10007047000098ED00E000BF00BF00BFBFF3C6
:100F20005F8F00BF00BF00BF0548006820F480301D
:100F300003490860002002497031086070470000D2
:100F400024ED00E040F001010D4A11600C497039B8
:100F5000096841F480310A4A703A116000BF00BF4D
:100F600000BFBFF34F8F00BF00BF00BF00BF00BF77
:100F700000BFBFF36F8F00BF00BF00BF704700000E
:100F800094ED00E008B500BF0648006840F002009C
:100F9000044908600846006800F00200009000BFA5
:100FA00000BF08BDF44402582DE9F05F80460D46AD
:100FB000164603F009FC074639462A46334601F037
:100FC0000700C0F1070ABAF1040F02D94FF0040A72
:100FD00001E0C0F1070AD14600F1040ABAF1070F97
:100FE00002D24FF0000A01E0A0F1030AD4464FF00C
:100FF000010A0AFA09FAAAF1010A0AEA020A0AFA35
:101000000CFA4FF0010B0BFA0CFBABF1010B0BEAE6
:10101000030B4AEA0B042146404603F0DDFBBDE822
:10102000F09F000000BF00F00702064B19684FF662
:10103000FF031940044B0B4343EA0221014B1960A3
:1010400000BF70470CED00E00000FA0570B50446E3
:1010500015480068C0F3800048B91348006800F0E4
:101060000700A04201D0012070BD0020FCE70E481F
:10107000006820F0070020430B490860FFF7B0FE2E
:10108000054607E0FFF7ACFE401BB0F57A7F01D9BB
:101090000120E9E7044808380068C0F34030002820
:1010A000F0D00020E0E700000C4802582DE9F041A4
:1010B00004460025A8464FF00062D4E90010114014
:1010C0000020134659404040014331D1A06E48B141
:1010D000B0F5801F0DD0B0F5001F11D0B0F5401F46
:1010E00016D114E0F948006840F40030F749086070
:1010F00010E0022104F1080002F072FD054609E04B
:10110000022104F1280002F01DFE054602E001E084
:10111000012500BF00BF55B9EC482430006820F419
:101120004010A16E0843E9492431086000E0A84658
:101130004FF48073D4E9001019400020594040401A
:1011400001432ED1A06D05281BD2DFE800F0030A71
:1011500011181900DD48006840F40030DB490860D0
:1011600011E0002104F1080002F03AFD05460AE012
:10117000002104F1280002F0E5FD054603E002E04D
:1011800001E0012500BF00BF55B9D04824300068F8
:1011900020F00700A16D0843CC492431086000E02D
:1011A000A8464FF40073D4E90010194000205940BC
:1011B0004040014334D1E06D802818D003DC40B1B9
:1011C00040281DD10CE0C02818D0B0F5807F17D181
:1011D00015E0BE48006840F40030BC49086011E0EA
:1011E000002104F1080002F0FBFC05460AE00021A2
:1011F00004F1280002F0A6FD054603E002E001E04C
:10120000012500BF00BF55B9B0482430006820F464
:10121000E070E16D0843AD492431086000E0A84664
:101220004FF48063D4E90010194000205940404039
:10123000014339D1D4F8A800B0F5800F1AD004DCEE
:1012400050B1B0F5001F1ED10DE0B0F5C00F18D0A1
:10125000B0F5000F17D115E09C48006840F400304D
:101260009A49086011E0002104F1080002F0B8FC7E
:1012700005460AE0002104F1280002F063FD05465E
:1012800003E002E001E0012500BF00BF5DB98F4827
:101290002C30006820F46000D4F8A81008438B4973
:1012A0002C31086000E0A8464FF40062D4E9001039
:1012B00011400020134659404040014339D1D4F831
:1012C000AC00B0F1007F1AD004DC50B1B0F1807FE7
:1012D0001ED10DE0B0F1407F18D0B0F1806F17D172
:1012E00015E07A48006840F400307849086011E061
:1012F000002104F1080002F073FC05460AE0002119
:1013000004F1280002F01EFD054603E002E001E0C2
:10131000012500BF00BF5DB96C482C30006820F08B
:10132000E060D4F8AC10084368492C31086000E054
:10133000A8464FF00073D4E900011840002158403E
:101340004940084328D1E06CA8B1102804D02028D7
:1013500009D0302810D10DE05C48006840F400301E
:101360005A4908600AE0022104F1080002F038FC42
:10137000054603E002E001E0012500BF00BF55B9CA
:1013800052482030006820F03000E16C08434F499B
:101390002031086000E0A8464FF48053D4E90010E3
:1013A0001940002059404040014337D1206EB0F52C
:1013B000005F1AD004DC50B1B0F5805F1ED10DE0A3
:1013C000B0F5405F18D0B0F5804F17D115E03F4819
:1013D000006840F400303D49086011E0002104F14C
:1013E000080002F0FDFB05460AE0002104F1280098
:1013F00002F0A8FC054603E002E001E0012500BF81
:1014000000BF55B931482430006820F4E040216E17
:1014100008432E492431086000E0A8464FF40053E9
:10142000D4E900101940002059404040014335D113
:10143000606EB0F5403F1ED007DC68B1B0F5803F6C
:101440000BD0B0F5003F19D10EE0B0F5802F13D0CE
:10145000B0F5A02F12D110E012E0012104F1080034
:1014600002F0BEFB05460BE0012104F1280002F06A
:1014700069FC054604E003E002E001E0012500BF4D
:1014800000BF55B911482430006820F4E020616E97
:1014900008430E492431086000E0A8464FF4804319
:1014A000D4E900011840002158404940084337D191
:1014B000D4F8B000B0F1405F20D009DC78B1B0F1D1
:1014C000805F0DD0B0F1005F1BD110E02C440258BA
:1014D000B0F1804F13D0B0F1A04F12D110E012E064
:1014E000012104F1080002F07BFB05460BE001211D
:1014F00004F1280002F026FC054604E003E002E0C7
:1015000001E0012500BF00BF4DB9FE48006820F092
:10151000E040D4F8B0100843FA49086000E0A8465B
:101520004FF40042D4E90010114000201346594006
:101530004040014329D1206FB0B1B0F1805F03D0AA
:10154000B0F1005F11D108E0EE482C38006840F49B
:101550000030EC492C39086009E0012104F1080051
:1015600002F03EFB054602E001E0012500BF00BF9E
:1015700055B9E4480838006820F04050216F08430E
:10158000E0490839086000E0A8464FF08072D4E9CD
:1015900000101140002013465940404001432AD119
:1015A000A06CB8B1012804D002280BD0032812D1B6
:1015B0000FE0D4482C38006840F40030D1492C3971
:1015C00008600AE0022104F1080002F009FB054668
:1015D00003E002E001E0012500BF00BF55B9C948A2
:1015E0000C38006820F00300A16C0843C5490C3991
:1015F000086000E0A8464FF48002D4E900011040E2
:10160000002113465840494008437DD1BE48006838
:1016100040F48070BC490860FFF7E2FB064606E034
:10162000FFF7DEFB801B642801D9032505E0B648DF
:10163000006800F480700028F2D000BF85BBB1487C
:101640001830006800F44070B4F8B41001F4407130
:10165000884213D0AB481830006820F44077A9487E
:101660001830006840F48030A649183108600846F8
:10167000006820F48030086008460760D4F8B400A1
:10168000B0F5807F15D1FFF7ABFB064609E0FFF709
:10169000A7FB801B41F28831884202D9032507E06D
:1016A00038E0984818300068C0F340000028EED0B9
:1016B00000BF55BB00BFB4F8B40000F44070B0F5F3
:1016C000407F0ED18F484838006820F47C518F4A03
:1016D000D4F8B400104041EA10108A494839086033
:1016E00007E088484838006820F47C50854948392C
:1016F0000860844818300068B4F8B410C1F30B01D6
:1017000008438049183101E005E001E0086002E08B
:10171000A84600E0A8460122D4E9000110400021BB
:10172000134658404940084330D1E06F18281AD07A
:1017300005DC48B1082808D0102817D10CE0202873
:1017400012D0282812D110E012E0012104F1080083
:1017500002F046FA05460BE0012104F1280002F0F0
:10176000F1FA054604E003E002E001E0012500BFD4
:1017700000BF55B96348001F006820F03800E16FD2
:1017800008436049091F086000E0A8460222D4E926
:10179000000110400021134658404940084329D118
:1017A000A06F062816D2DFE800F003040B12131412
:1017B00012E0012104F1080002F012FA05460BE0E4
:1017C000012104F1280002F0BDFA054604E003E01F
:1017D00002E001E0012500BF00BF55B94948001FE4
:1017E000006820F00700A16F08434649091F086000
:1017F00000E0A8460423D4E9001019400020594015
:101800004040014329D1D4F89400062816D2DFE8DD
:1018100000F003040B12131412E0012104F108007C
:1018200002F0DEF905460BE0012104F1280002F088
:1018300089FA054604E003E002E001E0012500BF6B
:1018400000BF4DB92F48006820F00700D4F894106D
:1018500008432C49086000E0A8462023D4E9000191
:101860001840002158404940084337D1D4F890002F
:10187000B0F1405F1ED007DC68B1B0F1805F0BD0E3
:10188000B0F1005F19D10EE0B0F1804F13D0B0F18C
:10189000A04F12D110E012E0002104F1080002F084
:1018A0009FF905460BE0022104F1280002F04AFAF4
:1018B000054604E003E002E001E0012500BF00BFAF
:1018C0005DB91048001F006820F0E040D4F8901087
:1018D00008430C49091F086000E0A8464023D4E9EA
:1018E0000010194000205940404001433CD1D4F839
:1018F0009C00B0F5406F25D00EDCA0B1B0F5806F34
:1019000012D005E05844025800480258FFFCFF0F6F
:10191000B0F5006F19D10EE0B0F5805F13D0B0F5CF
:10192000A05F12D110E012E0002104F1080002F0E3
:1019300057F905460BE0022104F1280002F002FAF3
:10194000054604E003E002E001E0012500BF00BF1E
:101950004DB9FE48006820F4E050D4F89C100843CC
:10196000FA49086000E0A8468023D4E90010194035
:10197000002059404040014335D1D4F8A000B0F5D3
:10198000C04F1ED007DC68B1B0F5005F0BD0B0F5DA
:10199000804F19D10EE0B0F5004F13D0B0F5204FB5
:1019A00012D110E012E0002104F1080002F018F951
:1019B00005460BE0022104F1280002F0C3F90546B8
:1019C00004E003E002E001E0012500BF00BF4DB9E3
:1019D000DE48006820F46040D4F8A0100843DB49DA
:1019E000086000E0A8460823D4E900101940002050
:1019F00059404040014317D1D4F88400B0F5805FCE
:101A000007D1022104F1280002F09CF908B14FF03F
:101A10000108CE48001F006820F44050D4F884101C
:101A20000843CA49091F08601023D4E9001019406F
:101A3000002059404040014315D1D4F89800B0F53A
:101A4000807F07D1022104F1280002F07BF908B160
:101A50004FF00108BD48006820F44070D4F8981099
:101A60000843BA4908604FF40022D4E9000110404D
:101A70000021134658404940084327D1D4F8A40018
:101A800030B1B0F5803F0AD0B0F5003F0FD10DE086
:101A9000002104F1080002F0A3F8054609E0022144
:101AA00004F1280002F04EF9054602E001E00125AC
:101AB00000BF00BF4DB9A548006820F44030D4F8FD
:101AC000A4100843A149086000E0A8464FF4802311
:101AD000D4E90001184000215840494008432DD165
:101AE000D4F88800B0F5801F06D0B0F5001F0CD0E8
:101AF000B0F5401F11D10FE094482C38006840F435
:101B0000003092492C39086009E0012104F12800D5
:101B100002F018F9054602E001E0012500BF00BF10
:101B20005DB98A48001F006820F44010D4F888107E
:101B300008438649091F086000E0A8464FF4803238
:101B4000D4E90001104000211346584049400843A1
:101B500025D1206D18B1B0F5803F10D108E07B4849
:101B60002C38006840F4003078492C39086008E0CF
:101B7000022104F1080002F033F8054601E00125D6
:101B800000BF00BF55B971480C38006820F48030A0
:101B9000216D08436D490C39086000E0A8464FF0FC
:101BA0000052D4E900101140002013465940404033
:101BB000014307D1022104F1280002F0C3F808B163
:101BC0004FF001084FF40033D4E900011840002120
:101BD00058404940084329D1D4F88000A0B1B0F55D
:101BE000807F06D0B0F5007F0CD0B0F5407F0CD1DF
:101BF00009E056482C38006840F4003053492C392D
:101C0000086004E003E002E001E0012500BF00BF3E
:101C10005DB94E48001F006820F44070D4F8801071
:101C200008434A49091F086000E0A8464FF48012A3
:101C3000D4E90010114000201346594040400143B0
:101C400009D142480838006820F00040616F08431D
:101C50003E49083908604FF08052D4E90010114025
:101C6000002013465940404001430AD137484838C4
:101C7000006820F48040D4F8B8100843334948394C
:101C800008604FF40012D4E9001011400020134600
:101C900059404040014309D12C480838006820F0E1
:101CA0008070E16E08432949083908604FF080428E
:101CB000D4E9001011400020134659404040014330
:101CC00011D100BF21484838006820F400401F4966
:101CD0004839086008460068D4F8BC1008431B491E
:101CE0004839086000BF4FF00042D4E900101140AD
:101CF0000020134659404040014309D113480C3895
:101D0000006820F04050616D084310490C390860AC
:101D10004FF40002D4E9001011400020134659404E
:101D2000404001430AD10948001F006820F44000E8
:101D3000D4F88C1008430549091F086001230021CD
:101D40006068184001224940504001E05844025860
:101D5000014306D104F1080001F042FF054605B138
:101D6000A8460222002160681040494050400143CB
:101D700007D1012104F1080001F032FF054605B149
:101D8000A8460423002061681940042240405140C5
:101D9000084307D1022104F1080001F021FF0546A4
:101DA00005B1A84608230021606818400822494070
:101DB0005040014306D104F1280001F0C3FF05465D
:101DC00005B1A846102200216068104049405040EB
:101DD000014307D1012104F1280001F0B3FF0546BA
:101DE00005B1A846202200206168114040405140C2
:101DF000084307D1022104F1280001F0A3FF0546A2
:101E000005B1A846B8F1000F02D10020BDE8F0816D
:101E10000120FBE72DE9F04104460D4614B90120ED
:101E2000BDE8F081BD48006800F00F00A8420ED266
:101E3000BA48006820F00F002843B84908600846F7
:101E4000006800F00F00A84201D00120E8E72078E8
:101E500000F0040004280ED1B1492069096801F09E
:101E60007001884207D9AE48006820F070002169EF
:101E70000843AB490860207800F00800082811D119
:101E8000A749091D6069096801F07001884209D9F4
:101E9000A348001D006820F0700061690843A04954
:101EA000091D0860207800F01000102811D19C490D
:101EB000091DA069096801F4E061884209D99848C0
:101EC000001D006820F4E060A16908439449091DE1
:101ED0000860207800F02000202811D190490831B6
:101EE000E069096801F07001884209D98C4808301E
:101EF000006820F07000E1690843894908310860F2
:101F0000207800F0020002280ED18549E0680968B7
:101F100001F00F01884207D98148006820F00F00C6
:101F2000E16808437E490860207800F0010000283D
:101F300050D07B48006820F47060A168084378495D
:101F400008606068022807D1754818380068C0F337
:101F50004040F8B9012063E76068032807D1704862
:101F600018380068C0F34060A0B9012058E76068E5
:101F7000012807D16A4818380068C0F3002048B922
:101F800001204DE7664818380068C0F3800008B9A2
:101F9000012045E762480838006820F007006168C2
:101FA00008435F4908390860FEF71AFF064608E053
:101FB000FEF716FF801B41F28831884201D90320C9
:101FC0002EE757480838006800F038006168B0EB29
:101FD000C10FEDD1207800F0020002280ED1504947
:101FE000E068096801F00F01884207D24C48006898
:101FF00020F00F00E168084349490860474800683D
:1020000000F00F00A8420ED94448006820F00F00ED
:102010002843424908600846006800F00F00A842C3
:1020200001D00120FCE6207800F0040004280ED145
:102030003B492069096801F07001884207D238489D
:10204000006820F070002169084335490860207855
:1020500000F00800082811D13149091D606909689C
:1020600001F07001884209D22D48001D006820F05F
:102070007000616908432A49091D0860207800F052
:102080001000102811D12649091DA069096801F422
:10209000E061884209D22248001D006820F4E06017
:1020A000A16908431E49091D0860207800F020003E
:1020B000202811D11A490831E069096801F070013E
:1020C000884209D216480830006820F07000E169A3
:1020D000084313490831086000F02CF810490968DA
:1020E000C1F303210F4A515C01F01F0120FA01F7EF
:1020F0000B48006800F00F001146085C00F01F005C
:1021000027FA00F008490860084807600848006896
:10211000FEF7A8FE8046404682E6000000200052FE
:102120001844025828550008100000240C00002410
:1021300004000024F0B5824E366806F0380636B149
:10214000082E15D0102E15D0182E7DD114E07C4EFF
:10215000103E3668C6F3401646B1794E103E3668DA
:10216000C6F3C107774E26FA07F000E07548E5E0B0
:102170007548E3E07548E1E0714E1836366806F0C0
:1021800003046F4E18363668C6F305116C4E1C36C4
:10219000366806F001056A4E24363668C6F3CC066A
:1021A00016FB05F601EE106AB8EE410A002971D05F
:1021B00024B1012C50D0022C6DD16DE0604E103E48
:1021C0003668C6F340163EB35D4E103E3668C6F321
:1021D000C1075C4E26FA07F301EE103AF8EE411AF9
:1021E00001EE101AB8EE411A81EE812A9FED581ABD
:1021F000C0EE011A524E20363668C6F3080601EECC
:10220000106AB8EE411A31EE811AF7EE001A31EE7B
:10221000211A62EE010A1EE001EE101AB8EE411A10
:10222000DFED4C1A81EE812A9FED491AC0EE011AAA
:10223000434E20363668C6F3080601EE106AB8EE43
:10224000411A31EE811A00E076E0F7EE001A31EE25
:10225000211A62EE010A5BE001EE101AB8EE411A93
:102260009FED3D2AC2EE011A9FED391A80EE012A38
:10227000334E20363668C6F3080601EE106AB8EE13
:10228000411A32EE011AB7EE002A31EE021A61EE5F
:10229000810A3DE04EE01DE001EE101AB8EE411A51
:1022A000DFED2E1A81EE812A9FED291AC0EE011A68
:1022B000234E20363668C6F3080601EE106AB8EEE3
:1022C000411A31EE811AF7EE001A31EE211A62EE50
:1022D000010A1DE001EE101AB8EE411A9FED1E2A08
:1022E000C2EE011A9FED1A1A80EE012A144E203612
:1022F0003668C6F3080601EE106AB8EE411A32EEEF
:10230000011AB7EE002A31EE021A61EE810A00BF0F
:1023100000BF0B4E20363668C6F34626721C01EE0F
:10232000102AB8EE411AC0EE811ABCEEE11A11EE85
:10233000100A00E0002001E0034800BF00BFF0BD2C
:10234000104402580090D00300093D0040787D0100
:10235000000000460024744C0024744A20BCBE4B8C
:102360002DE9F047044614B90120BDE8F087207834
:1023700000F00100002870D0FA48006800F038082A
:10238000F8481830D0F80090B8F1100F06D0B8F126
:10239000180F0FD109F0030002280BD1F1481038B3
:1023A0000068C0F3404000286AD06068002867D108
:1023B0000120DAE700BF6068B0F5803F08D1E94846
:1023C0001038006840F48030E649103908602EE08B
:1023D000606868B9E3481038006820F48030E1494B
:1023E000103908600846006820F4802008601EE06C
:1023F0006068B0F5A02F0DD1DA481038006840F4BD
:102400008020D849103908600846006840F48030C0
:1024100008600CE0D3481038006820F48030D149BF
:10242000103908600846006820F48020086000BF6A
:10243000606898B1FEF7D4FC054606E0FEF7D0FCD4
:10244000401B642801D903208FE7C6481038006874
:10245000C0F340400028F1D012E012E0FEF7C0FCCB
:10246000054606E0FEF7BCFC401B642801D90320AA
:102470007BE7BC4810380068C0F340400028F1D129
:1024800000BF207800F00200022874D1B54800682F
:1024900000F03808B3481830D0F80090B8F1000FB9
:1024A00005D0B8F1180F56D109F00300D0BBAD48E4
:1024B00010380068C0F3800018B1E06808B9012046
:1024C00053E7A8481038006820F01900E168084375
:1024D000A44910390860FEF783FC054606E0FEF7C4
:1024E0007FFC401B022801D903203EE79D4810389D
:1024F0000068C0F380000028F1D000BFFEF76AFC3E
:1025000041F2030188421AD8206940280BD195482E
:102510000C38006820F47C3040F4003091490C39CC
:10252000086017E017E08F480C38006820F47C3012
:10253000216940EA01308B490C3908600AE089487A
:102540000C38006820F0FE40217C40EA016085499B
:102550000C39086066E0E06888B38248103800688B
:1025600020F01900E16808437E4910390860FEF741
:1025700037FC054607E056E0FEF732FC401B022818
:1025800001D90320F1E6774810380068C0F38000D5
:102590000028F1D000BFFEF71DFC41F20301884284
:1025A0001AD8206940280BD16E480C38006820F4F6
:1025B0007C3040F400306B490C39086017E017E0BC
:1025C00068480C38006820F47C30216940EA01300A
:1025D00064490C3908600AE062480C38006820F051
:1025E000FE40217C40EA01605E490C39086019E038
:1025F0005C481038006820F001005A491039086022
:10260000FEF7EEFB054606E0FEF7EAFB401B02285C
:1026100001D90320A9E6534810380068C0F38000B0
:102620000028F1D100BF207800F0100010287CD1E4
:102630004C48006800F038084A481830D0F800903C
:10264000B8F1080F06D0B8F1180F3DD109F003001A
:10265000012839D1434810380068C0F3002020B168
:10266000E069802801D001207FE600BFFEF7B2FBC1
:1026700041F2030188421AD8206A20280AD1394839
:102680000C38006820F0F84040F0804035490C39A3
:10269000086018E033480C38006820F0F84094F8DF
:1026A000201040EA81602F490C3908600BE02D486A
:1026B000001F006820F07C5094F8201040EA016070
:1026C0002849091F086066E0E06978B3254810389A
:1026D000006840F08000234910390860FEF780FB55
:1026E000054606E0FEF77CFB401B022801D90320CB
:1026F0003BE61C4810380068C0F300200028F1D0E9
:1027000000BFFEF767FB41F2030188421CD8206A34
:1027100020280CD113480C38006820F0F84040F015
:10272000804010490C3908601AE035E01CE00D4883
:102730000C38006820F0F84094F8201040EA8160DE
:1027400008490C3908600BE00648001F006820F0BB
:102750007C5094F8201040EA01600249091F08608B
:1027600019E0000010440258FA48006820F0800088
:10277000F8490860FEF734FB054606E0FEF730FB3B
:10278000401B022801D90320EFE5F2480068C0F39E
:1027900000200028F2D100BF207800F008000828AF
:1027A00036D16069D0B1EB487430006840F0010068
:1027B000E84974310860FEF713FB054606E0FEF7B2
:1027C0000FFB401B022801D90320CEE5E1487430FD
:1027D0000068C0F340000028F1D019E0DD487430F3
:1027E000006820F00100DB4974310860FEF7F8FA58
:1027F000054606E0FEF7F4FA401B022801D9032043
:10280000B3E5D44874300068C0F340000028F1D12B
:10281000207800F02000202830D1A069B8B1CD4840
:10282000006840F48050CB490860FEF7D9FA0546AD
:1028300006E0FEF7D5FA401B022801D9032094E5F3
:10284000C4480068C0F340300028F2D016E0C14808
:10285000006820F48050BF490860FEF7C1FA0546C1
:1028600006E0FEF7BDFA401B022801D903207CE5F3
:10287000B8480068C0F340300028F2D1207800F05A
:10288000040004287DD1B448006840F48070B24947
:102890000860FEF7A5FA054606E0FEF7A1FA401B20
:1028A000642801D9032060E5AB48006800F480701B
:1028B0000028F2D000BFA068012808D1A5487030D8
:1028C000006840F00100A349703108602DE0A06865
:1028D00068B9A0487030006820F001009D4970314F
:1028E00008600846006820F0040008601DE0A06849
:1028F00005280DD197487030006840F004009549D4
:10290000703108600846006840F0010008600CE083
:1029100090487030006820F001008E4970310860E6
:102920000846006820F00400086000BFA068A0B15D
:10293000FEF756FA054608E0FEF752FA401B41F250
:102940008831884201D903200FE582487030006841
:10295000C0F340000028EFD013E0FEF741FA05462F
:1029600008E0FEF73DFA401B41F28831884201D968
:102970000320FAE4774870300068C0F34000002874
:10298000EFD1606A00287DD072481030006800F0F6
:102990003800182877D0606A022875D16D48006821
:1029A00020F080706B490860FEF71AFA054606E0D1
:1029B000FEF716FA401B022801D90320D5E465482A
:1029C0000068C0F340600028F2D100BFD4E90A10CB
:1029D00041EA00105F492831096840F2F33291431F
:1029E00008435C4928310860208E401EC0F308006F
:1029F000616B491E4FF47E4202EA41210843218F58
:102A0000491ED20102EA014108433C21095D491EE9
:102A1000120202EA016108434E493031086000BFEA
:102A2000081F006820F00100091F08604948343081
:102A300000684FF6F8718843A16C40EAC10045492F
:102A40003431086043482C30006820F00C00216CC1
:102A5000084340492C3108600846006820F0020015
:102A6000616C08433B492C3108600846006840F41B
:102A7000803008600846006840F40030086008466E
:102A8000006802E093E038E01FE040F48020086036
:102A90000846006840F0010008602E48006840F0D9
:102AA00080702C490860FEF79BF9054606E0FEF7AA
:102AB00097F9401B022801D9032056E425480068F5
:102AC000C0F340600028F2D071E02248006820F096
:102AD000807020490860FEF783F9054606E0FEF79E
:102AE0007FF9401B022801D903203EE41948006801
:102AF000C0F340600028F2D159E01648283007683A
:102B0000144830300668606A012821D007F00301BC
:102B1000A06A81421CD1C7F30511E06A884217D12F
:102B2000C6F30801206B401E814211D1606B401E2C
:102B3000C6F3462188420BD1A06B401EC6F3064166
:102B4000884205D1E06B401EC6F30661884205D07D
:102B500001200AE400440258004802581548006861
:102B6000C0F3CC07A06CB84221D0124808380068E6
:102B700020F001000F4908390860FEF731F90546D9
:102B800000BFFEF72DF9401BFBD00A4800684FF646
:102B9000F8718843A16C40EAC10006490860054805
:102BA0000838006840F00100024908390860002038
:102BB0004AE400003444025870B504460D460CB98E
:102BC000012070BD94F82C0028B9002084F82D0055
:102BD000204600F019F8022084F82C00211D2068FE
:102BE000FDF76AFE2946D4E90002FDF7B9FE054863
:102BF000006840F0004003490860012084F82C0080
:102C00000020DEE70040005210B50446FDF706FF45
:102C100010BD70B504460D4694F82C00022800D172
:102C200070BD94F82C0001280AD1022084F82C00F1
:102C300029462068FDF776FE012084F82C0001E08B
:102C40000120EDE70020EBE72DE9F04104460E46B8
:102C5000174694F82C50022D02D10220BDE8F081D5
:102C6000012D01D0052D12D1022084F82C003A4606
:102C700031462068FDF760FE3068022803D1052048
:102C800084F82C0005E0012084F82C0001E00120EC
:102C9000E4E70020E2E7000070B504460CB901202B
:102CA00070BD606A00B900BF0021A162634920685D
:102CB00088420CD062492068884208D06149206867
:102CC000884204D0E0680F2801D90120E8E72046B7
:102CD00001F0CBFA054659492068884209D0584985
:102CE0002068884205D057492068884201D0082DC5
:102CF0000DD852492068884207D05149206888423F
:102D000003D050492068884203D1102D01D90120F9
:102D1000C6E794F8810028B9002084F88000204696
:102D200000F092F8022084F881002068006820F00A
:102D30000100216808602068806800F4F816A06926
:102D4000B0F1806F11D16068B0F5800F01D1A06B38
:102D500028B1606848B9A06BB0F1805F05D12068E8
:102D6000006840F4805021680860606800F48000CA
:102D7000B0F5800F0BD1E068072808D32068006801
:102D800020F48070216D08432168086005E0206808
:102D9000006820F4807021680860A16AE069084337
:102DA0003043E16B0843E168084321688860616A49
:102DB000606B0843A16B0843A1690843216908437C
:102DC00061690843216A084361680843E16C08436C
:102DD000A1680843A16C0843A16D08432168C8603D
:102DE000606878B92068806820F4C05040F40060C2
:102DF000216888602068806820F4C06040F48060AA
:102E0000216888602068006D20F001002168086555
:102E1000606800F48000B0F5800F07D12068C068BA
:102E200020F00040616D08432168C8600020C4F8AC
:102E30008400012084F88100002031E70030014047
:102E400000380040003C004010B586B00446142114
:102E500001A8FDF758FA4649206888427ED100BF94
:102E60004448006840F48010424908600846006801
:102E700000F48010009000BF00BF00BF3D48103834
:102E8000006840F480603B491039086008460068DB
:102E900000F48060009000BF00BF00BF08460068DB
:102EA00040F4007008600846006800F4007000906C
:102EB00000BF00BF00BF0846006840F08000086007
:102EC0000846006800F08000009000BF00BF00BF0F
:102ED0000846006840F0800008600846006800F07E
:102EE0008000009000BF00BF00BF0846006840F4AB
:102EF000007008600846006800F40070009000BF91
:102F000000BF0220029000200390032004900520BF
:102F100005900120019001A91748FDF74DFE4FF4DF
:102F20008060019001A91548FDF746FE2020019020
:102F300001A91348FDF740FE4020019001200290B6
:102F400000200390049001A90D48FDF735FE4FF4D1
:102F50000060019001200290002000E005E0039055
:102F6000049001A90548FDF727FE06B010BD00003A
:102F700000500140F0440258002802580024025832
:102F8000001C02582DE9F8430446884616461D46A3
:102F9000206800F12009FDF723FF074694F881001F
:102FA000012802D00220BDE8F883B8F1000F00D05C
:102FB0000EB90120F7E700BF94F88000012801D185
:102FC0000220F0E7012084F8800000BF03205C3479
:102FD00084F825000020A062C4F80080A680E68066
:102FE000A060A081E081A06160615C3CA068B0F558
:102FF000C02F06D12068006840F400602168086096
:1030000007E02068C06820F4C02040F40030216848
:10301000C860206840686FF30F0030432168486043
:103020002068006840F00100216808606068B0F521
:10303000800F05D12068006840F4007021680860A6
:10304000E0680F2833D92DE02068406900F00200C5
:1030500002280CD1E06D006821680862E06D001D57
:10306000E065B4F86200401EA4F862001AE0FDF7C3
:10307000B7FEC01BA84201D3681C00B995B9204611
:1030800001F088F8D4F8840040F48070C4F884001B
:10309000012084F8810000BF002084F8800000BF78
:1030A000032080E7B4F862000028CDD1A4E0E068F6
:1030B000072846D940E02068406900F00200022855
:1030C0001FD1B4F8620001280ED9E06B60B1E06D49
:1030D000006821680862E06D001DE065B4F86200D8
:1030E000801EA4F8620027E0E06D0088A9F80000C7
:1030F000E06D801CE065B4F86200401EA4F8620038
:103100001AE0FDF76DFEC01BA84201D3681C00B990
:1031100095B9204601F03EF8D4F8840040F4807060
:10312000C4F88400012084F8810000BF002084F8E6
:10313000800000BF032036E7B4F862000028BAD14F
:103140005AE055E02068406900F00200022834D1BE
:10315000B4F8620003280FD9E06B40280CD9E06D69
:10316000006821680862E06D001DE065B4F8620047
:10317000001FA4F862003BE0B4F8620001280ED9F9
:10318000E06B60B1E06D0088A9F80000E06D801C84
:10319000E065B4F86200801EA4F8620028E0E06DEB
:1031A0000078216881F82000E06D401CE065B4F8EB
:1031B0006200401EA4F862001AE0FDF711FEC01B79
:1031C000A84201D3681C00B995B9204600F0E2FF7F
:1031D000D4F8840040F48070C4F88400012084F89E
:1031E000810000BF002084F8800000BF0320DAE6E1
:1031F000B4F862000028A5D12B4600220821204601
:10320000009701F077F928B1D4F8840040F020004D
:10321000C4F88400204600F0BDFF012084F881003E
:1032200000BF002084F8800000BFD4F8840008B1FB
:103230000120B8E60020B6E670B504462546681EB3
:10324000B0F1807F01D301200FE0681E4FF0E02134
:1032500048610F214FF0FF3001F0BEFA00204FF01F
:10326000E021886107200861002070BD00BFFEE7F3
:1032700010B514488089401E83B212484089401E10
:1032800082B20021084600F0A9FA0122D1020E48BC
:10329000FDF79AFD0F210D48C160FFF7FDFC0948BD
:1032A0004089084B9B8900FB03F20648808881B265
:1032B000064800F0A4F907210448C160FFF7ECFCC0
:1032C00010BD00003C09002400240258B400002472
:1032D0002DE9F05F0746884614460025A9460026DA
:1032E000AA46A4F12000C4B200BF34E02B48006815
:1032F00000682A490968098904FB015110F801B0E6
:103300004FF0000921E00BF0010028B124480088AB
:10331000244921F8160004E021488088214921F839
:1033200016004FEA6B0B701C86B20AF101001FFAFF
:1033300080FA1A4800688088504502D14FF0000A90
:1033400006E009F101001FFA80F9B9F1080FDADB94
:1033500000BF681C85B2114800680089A842C5DC1E
:103360000E480068C0884044401E83B20B48006885
:1033700080883844401E82B24146384600F02EFA1A
:10338000064800688088054A1268D288504381B296
:10339000044800F0D1FABDE8F09F00008C00002442
:1033A0003C0900243C01002470B505460E46144635
:1033B0000AE0227831462846FFF78AFF064800686F
:1033C0008088284485B2641C04484089A84202DDF4
:1033D00020780028EDD170BD8C0000243C09002429
:1033E0002DE9F04F89B005460E4691469A460027D2
:1033F000B846BB46002008900790069005900490C0
:1034000000240390029001900090A9EB0500002891
:1034100002DDA9EB050001E0A5EB090007B2AAEB6C
:103420000600002802DDAAEB060001E0A6EB0A0078
:103430000FFA80F80FFA85FB30B20890A94503DB3C
:1034400001200790069003E04FF0FF3007900690B0
:10345000B24503DB01200590049003E04FF0FF30FC
:103460000590049047450DDB0020079004903C46F2
:10347000384607EBD071491009B20391CDF80880A6
:1034800001970CE00020069005904446404608EB6A
:10349000D071491009B203910297CDF80480002041
:1034A000009029E0184B1A68089B99B21FFA8BF01C
:1034B00000F02CF8DDE90210084400B203900398F4
:1034C000A0420CDB0398001B00B2039007985844FD
:1034D0000FFA80FB05990898084400B208900698F6
:1034E00058440FFA80FB04990898084400B20890E9
:1034F0000098401C00B20090DDE900018842D1DD57
:1035000009B0BDE8F08F00003C09002470B5044606
:103510000D4616462B4622462946204600F05EF907
:10352000B0B200F03BFA70BD02685169026892695E
:1035300042F0080203689A610268926942F0100240
:1035400003689A610268126822F0010203681A6037
:103550000268126940F26F339A4303681A61026885
:10356000926822F4404203689A6090F88120042A0D
:103570000ED001F020025AB1D0F8842042F080022F
:10358000C0F884200268926942F0200203689A61C0
:1035900090F88120032A0ED001F040025AB1D0F8F1
:1035A000842042F00402C0F884200268926942F04C
:1035B000400203689A6101F400725AB1D0F8842085
:1035C00042F00102C0F884200268926942F400725D
:1035D00003689A6101F480725AB1D0F8842042F0F5
:1035E0000802C0F884200268926942F4807203687D
:1035F0009A610022A0F86220A0F86A2070472DE9A5
:10360000F84F0446884691464FF47A754FF0000B08
:1036100000BF94F88000012802D10220BDE8F88F95
:10362000012084F8800000BFFDF7DAFB064694F81D
:103630008100012808D04FF0020B00BF002084F861
:10364000800000BF5846E9E7B9F1000F08D14FF0FC
:10365000010B00BF002084F8800000BF5846DDE762
:10366000032064346077002020624F4648EA084A0D
:103670002060A080E0802061E060643CA068B0F53C
:10368000C02F05D12068006840F400602168086000
:10369000206840686FF30F00216848602068006868
:1036A00040F00100216808606068B0F5800F05D126
:1036B0002068006840F40070216808602FE02068EE
:1036C000406900F0020002280FD1B4F8620001281E
:1036D00006D9E06B20B12068C0F820A0BF1E1EE014
:1036E0002068A0F820807F1E19E0FDF779FB801B81
:1036F000A84201D3681C00B98DB92046FFF714FF1A
:1037000000BF002084F8800000BFD4F8840040F49B
:103710008070C4F88400012084F881007EE7002FC7
:10372000CDD1334600224FF480512046009500F061
:1037300034F828B1D4F8840040F02000C4F88400A4
:103740002068006840F480602168086033460022E9
:103750004FF400612046009500F01FF828B1D4F81E
:10376000840040F02000C4F884002046FFF7DCFE0F
:103770002068806940F400602168886100BF0020F3
:1037800084F8800000BF012084F88100D4F8840010
:1037900008B1012042E7584640E72DE9F0410646CE
:1037A0000C4617469846069D0BE0FDF719FBA0EB6B
:1037B0000800A84201D3681C00B915B90320BDE870
:1037C000F081306840692040A04201D1012000E032
:1037D0000020B842E9D00020F1E700002DE9F041D7
:1037E00004460D4616461F462A2000F0C3F810492D
:1037F000897B214488B200F0D1F80D49897B31449E
:1038000088B200F0CBF82B2000F0B4F80849C97B4F
:10381000294488B200F0C2F80549C97B394488B20E
:1038200000F0BCF82C2000F0A5F8BDE8F081000005
:103830003C09002401490860704700008C00002406
:1038400030B500230021002200F47804230A00F49C
:103850007C446109C0F3C40243EA01041443014DEE
:103860006C6030BD3C09002430B5002300210022EB
:1038700000F47804230A00F47C446109C0F3C40214
:1038800043EA01041443014D2C6030BD3C0900247F
:1038900010B50446244844727CB9362000F06AF81A
:1038A000702000F095F800201F498873C8734FF40A
:1038B000A0704881F020888134E0022C0FD136209E
:1038C00000F058F8002000F083F8002016498873B3
:1038D000C873F02048814FF4A070888122E0012C49
:1038E0000FD1362000F046F8A02000F071F800203B
:1038F0000D498873C8734FF4A0704881F020888107
:1039000010E0032C0ED1362000F034F8C02000F077
:103910005FF8002004498873C873F02048814FF491
:10392000A070888110BD00003C0900240149087284
:10393000704700003C09002470B504460D46012282
:10394000D1020A48FDF740FA0F210948C160FFF78C
:10395000A3F94FF47A732A4621460548FFF712FB74
:1039600007210348C160FFF797F970BD0024025892
:10397000B400002401B500224FF400610548FDF7B2
:1039800023FA4FF47A73012269460348FFF7FAFAE3
:1039900008BD000000240258B400002438B50446D5
:1039A0000122D1020848FDF70FFA20128DF800001D
:1039B000E0B28DF801004FF47A73022269460348A1
:1039C000FFF7E0FA38BD000000240258B4000024DC
:1039D00001B50122D1020548FDF7F6F94FF47A73DB
:1039E000012269460248FFF7CDFA08BD00240258BB
:1039F000B400002400B587B0142102A8FCF783FCB2
:103A000000BF1048006840F004000E4908600846F6
:103A1000006800F00400019000BF00BF00224FF4D6
:103A200000510948FDF7D0F94FF4005002900120F1
:103A3000039000200490059002A90348FDF7BCF80C
:103A400007B000BDE0440258000802581FB5FDF75A
:103A500063FA01208DF800004FF0404001901820DB
:103A60008DF8080003208DF80B0000208DF80F0062
:103A700001208DF80E0000208DF80D0002208DF839
:103A8000010000208DF80A008DF809008DF80C0067
:103A90006846FDF713FA0420FDF754FA1FBD000035
:103AA00000B587B01C216846FCF72DFC1848194961
:103AB0000860002048600121164881600821C1602B
:103AC00010210161402141614FF4C07181610021E9
:103AD000C1614FF4006101624900416249008162A5
:103AE00002200090072001900420029007200390FC
:103AF0000320049002200590069069460548FFF7D0
:103B00005BF80549034800F0CFF907B000BD00009D
:103B100040410052340A0024680A002408B500BF5E
:103B20001348006840F00100114908600846006829
:103B300000F00100009000BF00BF00BF0846006811
:103B400040F0040008600846006800F0040000909F
:103B500000BF00BF00BF0846006840F0800008605A
:103B60000846006800F08000009000BF00BF08BD5C
:103B7000E044025810B51548154908604FF480001C
:103B800048604FF4C021124881600721C1600021C4
:103B9000016141614FF0005181610021C161016209
:103BA00041628162C1624FF08041416300218163C3
:103BB0002021C1630021016441648164C164016505
:103BC00041658165FFF768F810BD000000500140B5
:103BD000B400002400BFFEE700BFFEE7704700000E
:103BE0002DE9F04104460E4600275548006800F0D4
:103BF0000300032802D10120BDE8F0815048283895
:103C0000006820F080604E4928390860FDF7E8F828
:103C1000054606E0FDF7E4F8401B022801D9032021
:103C2000EAE7474828380068C0F3C0600028F1D1AF
:103C300000BF4348006820F47C30216840EA01302E
:103C40003F490860A088401EC0F30800A168491ED3
:103C50004FF47E4202EA41210843A189491ED20164
:103C600002EA01410843217C491E120202EA016175
:103C7000084333491031086000BF3148001D006817
:103C800020F0C000616908432D49091D08600846FD
:103C9000006820F02000A16908432949091D086037
:103CA0000846006820F010000860254814300068BD
:103CB0004FF6F8718843E16940EAC10020491431A8
:103CC00008601F48001D006840F010001C49091DD5
:103CD00008602EB90846006840F40020086012E031
:103CE000012E08D11648001D006840F480101449C8
:103CF000091D086007E01248001D006840F400102C
:103D00000F49091D08600E482838006840F080609F
:103D10000B4928390860FDF763F8054606E0FDF712
:103D20005FF8401B022801D9032065E704482838C2
:103D30000068C0F3C0600028F1D038465CE700009E
:103D4000284402582DE9F04104460E460027554804
:103D5000006800F00300032802D10120BDE8F081D3
:103D600050482838006820F080504E4928390860B3
:103D7000FDF736F8054606E0FDF732F8401B02284D
:103D800001D90320EAE7474828380068C0F34070AB
:103D90000028F1D100BF4348006820F07C702188E2
:103DA00040EA01503F490860A088401EC0F3080067
:103DB000A168491E4FF47E4202EA41210843A189CD
:103DC000491ED20102EA01410843217C491E120228
:103DD00002EA0161084333491831086000BF3148E5
:103DE000001D006820F44060616908432D49091DE9
:103DF00008600846006820F40070A169084329495A
:103E0000091D08600846006820F480700860254895
:103E10001C3000684FF6F8718843E16940EAC10040
:103E200020491C3108601F48001D006840F4807064
:103E30001C49091D08602EB90846006840F480003E
:103E4000086012E0012E08D11648001D006840F4F9
:103E500000001449091D086007E01248001D0068B1
:103E600040F080700F49091D08600E48283800682E
:103E700040F080500B4928390860FCF7B1FF054637
:103E800006E0FCF7ADFF401B022801D9032065E7DF
:103E9000044828380068C0F340700028F1D0384644
:103EA0005CE700002844025838B505460C4600205F
:103EB000009001202060102060600120A0600020A0
:103EC000E0604FF4805221462846FEF7BDFE0120F7
:103ED000FCF790FD02202060102060600120A060AF
:103EE0000020E0604FF4805221462846FEF7ACFEE9
:103EF00003202060102060600820A0600020E060A7
:103F00004FF4805221462846FEF79EFE40F23120B3
:103F1000009004202060102060600120A0600098C4
:103F2000E0604FF4805221462846FEF78DFE40F2B5
:103F300096312846FEF76DFE38BD00002DE9F043AE
:103F40002DED028B8DB00024A14665A2FF2168A053
:103F500000F072FAFCF744FF804600BF04E0600006
:103F6000A0F180400480641CB4F1807FF7D3FCF79B
:103F700037FF0646A6EB080500EE105AF8EE400A99
:103F80009FED5D1A81EE200ADFED5C0A20EE208AAB
:103F9000B7EEC80A53EC102B59A101A800F000FCA1
:103FA00001AAFF2152A000F047FA4FF4C870FCF7B5
:103FB00021FD58A2FF214EA000F03EFAFCF710FFB1
:103FC0008046002405E06000A0F18040B0F8009039
:103FD000641CB4F1807FF6D3FCF702FF0646A6EB23
:103FE000080500EE105AF8EE400A9FED431A81EEE4
:103FF000200ADFED420A20EE200AB0EE408AB7EE3A
:10400000C80A53EC102B3EA101A800F0C9FB01AA7D
:10401000FF2137A000F010FA4FF4C870FCF7EAFC5B
:1040200040A2FF2132A000F007FA002413E0600054
:10403000A0F18040B0F80090A0B248450AD03DA25F
:10404000FF212BA000F0F8F901200DB0BDEC028B90
:10405000BDE8F083641CB4F1807FE8D34FF4C870EE
:10406000FCF7C8FC36A2FF2121A000F0E5F938A238
:10407000FF211FA000F0E0F94FF4C870FCF7BAFC74
:10408000002403E0A4F180400470641CFF2CF9D3E9
:1040900024A2FF2116A000F0CFF94FF4C870FCF75E
:1040A000A9FC002412E0A4F180400778E0B2B842F5
:1040B0000BD02BA2FF210EA000F0BEF92DA2FF21F4
:1040C0000BA000F0B9F90120BFE7641CFF2CEAD374
:1040D0002CA2FF2106A000F0AFF90020B5E70000F8
:1040E00057726974655465737420426567696E0020
:1040F000534452414D0000000000004200007A4449
:10410000726573756C743A252E3266204D422F739A
:104110000000000052656164546573742042656755
:10412000696E000056616C69646174696E67204451
:104130006174610054455354204641494C45440044
:1041400031364269742054657374205041535300D2
:1041500038426974205465737420426567696E0043
:10416000384269742054657374204641494C454473
:1041700000000000436865636B204E424C302F4EB8
:10418000424C3100384269742054657374205041A8
:1041900053530000026851690268926942F00802B4
:1041A00003689A610268926942F0100203689A619A
:1041B0000268126822F0010203681A60026812693C
:1041C00040F26F339A4303681A610268926822F4DE
:1041D000404203689A6090F88120042A0ED001F0D2
:1041E00020025AB1D0F8842042F08002C0F8842026
:1041F0000268926942F0200203689A6190F8812077
:10420000032A0ED001F040025AB1D0F8842042F0C7
:104210000402C0F884200268926942F040020368F8
:104220009A6101F400725AB1D0F8842042F0010280
:10423000C0F884200268926942F4007203689A61AF
:1042400001F480725AB1D0F8842042F00802C0F81C
:1042500084200268926942F4807203689A610022A5
:10426000A0F86220A0F86A20704710B5014601242A
:10427000C86B04EB5013C868421CD01DC20802FB77
:1042800003F010BD10B5FFF775FC0A20FCF7B2FB78
:104290003620FFF76FFB0020FFF79AFB3A20FFF76D
:1042A00069FB0520FFF794FBB220FFF763FB0C20AE
:1042B000FFF78EFB0C20FFF78BFB0020FFF788FB3E
:1042C0003320FFF785FB3320FFF782FBB720FFF792
:1042D00051FB3520FFF77CFBBB20FFF74BFB192080
:1042E000FFF776FBC020FFF745FB2C20FFF770FBA4
:1042F000C220FFF73FFB0120FFF76AFBC320FFF757
:1043000039FB1220FFF764FBC420FFF733FB2020AA
:10431000FFF75EFBC620FFF72DFB0F20FFF758FBD2
:10432000D020FFF727FBA420FFF752FBA120FFF7C7
:104330004FFBE020FFF71EFBD020FFF749FB0420D6
:10434000FFF746FB0D20FFF743FB1120FFF740FB73
:104350001320FFF73DFB2B20FFF73AFB3F20FFF731
:1043600037FB5420FFF734FB4C20FFF731FB1820BC
:10437000FFF72EFB0D20FFF72BFB0B20FFF728FB91
:104380001F20FFF725FB2320FFF722FBE120FFF78B
:10439000F1FAD020FFF71CFB0420FFF719FB0C20DB
:1043A000FFF716FB1120FFF713FB1320FFF710FB9D
:1043B0002C20FFF70DFB3F20FFF70AFB4420FFF7FF
:1043C00007FB5120FFF704FB2F20FFF701FB1F2005
:1043D000FFF7FEFA1F20FFF7FBFA2020FFF7F8FA9D
:1043E0002320FFF7F5FA2120FFF7C4FA1120FFF789
:1043F000C1FA7820FCF7FEFA2920FFF7BBFA022069
:10440000FFF746FA0020FFF71BFA6FF07F40FFF737
:104410002BFAFEF72DFF0648FFF70CFA0020FFF7F6
:1044200085FA012240210348FCF7CEFC10BD0000B4
:104430005C000024001C02582DE9F04F89B00746AB
:10444000884615463846FBF781FF00F101092846EA
:10445000FBF77CFF089008994944481C00F054FF82
:10446000824639465046FBF778FF21A15046FBF7BC
:1044700055FF29465046FBF751FF002401200790C5
:1044800028E05046FBF762FFA0EB040BBBF1180FCE
:1044900001D2584600E0182006460AEB04013246D5
:1044A0006846FBF717FF00200DF80600079848B193
:1044B00009F0FF0243460121684600F05BFF00203F
:1044C000079005E000231A461946684600F052FF9F
:1044D000344400BF5046FBF739FFA042D1D85046C4
:1044E00000F0E8FD00F096FF09B0BDE8F08F000095
:1044F0003A0000002DE9F04106460D4617461C46DD
:10450000DDF818800BE0FCF76BFCA0EB0800A04284
:1045100001D3601C00B914B90320BDE8F0813068F4
:1045200040692840A84201D1012000E00020B842A3
:10453000E9D00020F1E7704710B5FCF757FC10BD3B
:1045400000B5CDB04C213AA8FBF7DDFE202132A802
:10455000FBF7D9FEC02102A8FBF7D5FE0220FCF72D
:1045600075FD00BF002001904948006820F001005F
:10457000474908600846006800F00100019045487E
:10458000006840F44040434908600846006800F471
:104590004040019000BF00BF00BF3E48006800F4EB
:1045A0000050B0F5005FF8D100BF3B48006840F014
:1045B0000200394908600846006800F002000190D6
:1045C00000BF00BF00BF002001903248006840F4E7
:1045D0004040304908600846006800F440400190BF
:1045E0002B48006840F0010029490860084600682F
:1045F00000F00100019000BF00BF00BF2548006827
:1046000000F40050B0F5005FF8D101203A900004AA
:104610003B900220439002213AA881620521C162A9
:10462000C021016302214163042181630221C1632E
:1046300008210164002141648164FDF791FE08B105
:10464000FCF737F93F20329003203390002034905C
:104650000820359040203690379000013890402057
:104660003990042132A8FDF7D5FB08B1FCF721F9F8
:104670000A490020CDE9021014901B90169002A860
:10468000FCF714FD08B1FCF714F94DB000BD0000B3
:104690002C04005818480258F44402580020010124
:1046A0003448006840F470003249086032480068BD
:1046B00000F00F00072806D22F48006820F00F00F6
:1046C000C01D2D4908602D48006840F001002B49AD
:1046D00008600020294910310860284800682849EE
:1046E0000840264908602448006800F00F000728A9
:1046F00006D92148006820F00F00C01D1E4908603F
:1047000000201E4918310860091D0860091D086055
:104710001C481A49283108601B48091D08601B48BD
:10472000091D08600020091D08601848091D08605F
:104730000020091D08601548091D08600020091D9A
:1047400008600E48006820F480200C4908600020B2
:104750000A49603108600E4800686FF30F00B0F13D
:10476000005F02D201200B49086043F2D2000A49DF
:104770000860704788ED00E00020005200440258B5
:104780007FEDF6EA000202020000FF018002010153
:104790000010005C088100510040005200BFFEE79D
:1047A0000FB4084B10B504A902AA039800F0FAF858
:1047B000044602A9002000F078FC204610BC5DF8F9
:1047C00014FB0000AB50000802480068C0F3022050
:1047D000704700000CED00E010B5002804DB0A076C
:1047E000130E054A135406E00A07140E034A00F09C
:1047F0000F031B1FD45410BD00E400E018ED00E0CF
:1048000002E008C8121F08C1002AFAD17047704799
:10481000002001E001C1121F002AFBD170470000F7
:104820002DE9FF5F82B00021DDE90430020DDDF8E3
:1048300040B0034318D044F61050A2F2FF32424376
:104840001514119801281FD0A5EB0B00401C5FEA3E
:10485000000A4FF000064E4FDFF83891B046504640
:1048600015D5CAF1000413E0119801244AA30128C8
:1048700001D16FEA0B010298119AC0E90031C0E939
:10488000024206B0BDE8F09FCBF10000DFE704462E
:104890000021404A491842EB0450CDE9001012E0D3
:1048A000E00707D032463B4640464946FBF74CFE00
:1048B0008046894632463B4610461946FBF744FE81
:1048C00006460F466410002CEAD1DDE90401DDE95B
:1048D0000023BAF1000F06DAFBF736FE42464B46DC
:1048E000FBF732FE05E0FBF7A1FE42464B46FBF725
:1048F0009DFE04460E460022284BFBF71FFF03D8FF
:104900004FF0FF30014607E00022254B204631469C
:10491000FBF773FDFBF7F9FE102409E0002C0ADB1E
:104920000A220023FBF738FD039B30321A55641E20
:1049300050EA0102F2D1641C039AC4F11103144439
:10494000119A012A03D0012208430DD10AE008433D
:1049500004D000204FF0110B119072E7A3EB0B0570
:104960006D1E0DE05B4504DD4FF0000205F1010511
:1049700004E003DA4FF00002A5F10105002AECD0B3
:1049800002981199C0E90231C0E9004579E70000B9
:10499000000014400000F03F300000000000F04331
:1049A0000000E03F2DE9FF4F95B09A468846064645
:1049B0000025EEE1252877D100242746F94A012178
:1049C000039400E0044316F8013F203B01FA03F092
:1049D0001042F7D130782A2811D06FF02F033078A9
:1049E000A0F13002092A16D8039A44F0020402EB1F
:1049F000820203EB42021044761C0390EFE758F862
:104A0000042B0392002A03DA504244F4005403902A
:104A100044F00204761C30782E2816D116F8010FC7
:104A200044F004042A280DD06FF02F023078A0F152
:104A30003003092B09D807EB870302EB4303C718A0
:104A4000761CF3E758F8047B761C30786C280FD07E
:104A500006DC4C2817D068280DD06A2814D104E051
:104A6000742810D07A280FD10DE044F400140AE025
:104A700044F4801401E044F440147278824202D17C
:104A800004F58014761C761C307866280BD013DC75
:104A9000582877D009DC002875D04528F6D046285C
:104AA000F4D047281AD193E118E0632835D0642860
:104AB00079D0652812D18BE1702873D008DC672883
:104AC000F1D069286FD06E280DD06F2806D1ACE0E8
:104AD00073282CD0752874D0782853D05246179953
:104AE00090476D1C54E1C4F30250022809D00328FA
:104AF0000DD0D8F8001004280DD00D6008F104087E
:104B000046E1D8F80010EA17C1E90052F6E7D8F8F4
:104B100000100D80F2E70D70F0E718F8041B8DF817
:104B2000001000208DF80100EB46012003E058F84A
:104B300004BB4FF0FF3061074FF0000102D40DE0DD
:104B400009F101018946B9420FDA8145F8DB1BF80A
:104B500009100029F4D108E009F1010189468142D8
:104B6000FADB1BF809100029F6D103985346A0EB95
:104B7000090721463846179A00F080FA284400EBCE
:104B8000090507E044E008E10DE01BF8010B52467F
:104B900017999047B9F10109F7D253462146384693
:104BA000179AF2E039E00A21C4F302524FF0000BE9
:104BB0000091022A06D058F8040BC117032A09D025
:104BC0000AE023E008F1070020F00702F2E8020102
:104BD000904605E000B2C117042A01D140B2C117C6
:104BE000002906DA0A460021404261EB02012D222B
:104BF00002E0220504D52B228DF80420012203E0D7
:104C0000E20701D02022F7E7914657E00A2100E0B1
:104C100010214FF0000B00910BE010214FF0000B22
:104C200044F004040827009103E008204FF0000B33
:104C30000090C4F30252022A05D058F8040B002158
:104C4000032A08D008E008F1070020F00702F2E884
:104C50000201904603E080B2042A00D1C0B24FF0B6
:104C6000000922072AD53278702A07D0DDF800C063
:104C70008CF0100C5CEA0B0C05D00EE040228DF895
:104C80000420012208E050EA010306D030238DF809
:104C900004308DF8052002229146009B83F0080322
:104CA00053EA0B030AD150EA010201D1620705D58C
:104CB00030228DF804204FF001097F1E3278582AE7
:104CC00004D039A20C920CAA02920BE03BA2F9E7A5
:104CD0005B46009AFBF760FB0C9B9B5C029A521EA2
:104CE0000292137050EA0102F2D1029804A9081A44
:104CF00000F1200B600702D524F4803400E0012786
:104D00005F4502DDA7EB0B0000E0002000EB0B018C
:104D1000009003984944401A0390E00306D4534698
:104D20002146179A039800F0A9F90544002706E0E8
:104D300001A85246C05D179990476D1C7F1C4F45D6
:104D4000F6DBE0030CD553462146179A039800F092
:104D500095F9054404E030205246179990476D1CA0
:104D60000099481E00900029F5DC08E0029802999D
:104D700052460078491C0291179990476D1CBBF16F
:104D80000001ABF1010BF1DC5BE100F065F90544DA
:104D9000761C307800287FF40DAE19B02846BDE8A7
:104DA000F08F0000092801003031323334353637B6
:104DB0003839616263646566000000003031323367
:104DC0003435363738394142434445460000000007
:104DD000600700D4062708F1070020F00700F0E87C
:104DE0000223804603F0004C5FEA0C0001D097A03C
:104DF00009E0200501D596A005E0E00701D095A0C7
:104E000001E0AFF24C001390307823F000436528A6
:104E10000CD006DC452809D046281DD047287FD174
:104E20003BE0662818D067287AD136E00021112FA0
:104E300001DB112000E0781CCDE9000104A90CA8D9
:104E4000FFF7EEFCDDE90D010C9A4FF0000B07F1C6
:104E50000109109200914EE04FF000400097CDE91B
:104E6000011004A90CA8FFF7DBFCDDE90D020C9B87
:104E70000F994FF0000B91461093009211B9791CD5
:104E800000EB0109B7EB090003D4C0F1FF3B07F1C8
:104E90000109A9EB0700019042E0012F00DA012788
:104EA0000021112F01DD112000E03846CDE900017D
:104EB00004A90CA8FFF7B4FCDDE90D010C9A0091E0
:104EC0004FF0000BB946109221070FD4009A4A45C3
:104ED00003DA914601E0A9F10109B9F1010F05DDFD
:104EE000109AA9F10101515C3029F4D0B84202DADC
:104EF00010F1040F03DA0121CDE9011010E00028C0
:104F000003DC8344A9EB000102E0411C494500DDBC
:104F10008946A0EB0B00401C01904FF0004002902E
:104F2000200705D40198484502DB4FF0FF3001907F
:104F300000208DF84B0002980DF14B07B0F1004FA7
:104F400025D002200C902B200D90029800280CDA1E
:104F5000404202902D200D9007E00A210298FBF7B5
:104F600005FA3031029007F8011D0C99481E0C908B
:104F70000029F2DC02980028EFD1791E0D98087004
:104F8000307800F0200040F0450007F8020D11A82D
:104F9000C01BC01D02901398007800B1012000EBE7
:104FA0000901019801EBE071029801440398401A4D
:104FB000401E0390E00306D453462146179A0398F7
:104FC00000F05CF805441398007818B15246179920
:104FD00090476D1CE00323D553462146179A03984A
:104FE00000F04CF805441BE0BBF1000F07DB009814
:104FF000584504DD1098179910F80B0001E0179937
:1050000030205246904701980BF1010B401E05F1EC
:105010000105019004D12E205246179990476D1C2E
:10502000B9F10001A9F10109DEDC05E017F8010B77
:105030005246179990476D1C0299481E029000290C
:10504000F4DC53462146179A03989EE62D00000093
:105050002B000000200000002DE9F041044600254F
:105060001E461746880404D405E039462020B04780
:105070006D1C641EF9D52846BDE8F0812DE9F0418C
:10508000044600251E469046C80301D5302700E09F
:105090002027880404D505E041463846B0476D1CFA
:1050A000641EF9D52846BDE8F0810A68531C0B60E0
:1050B0001070704710B5002821D0114B0022001F3E
:1050C000196803E0814203D80A4649680029F9D1EA
:1050D00052B11368841A9C4204D1006818441060CD
:1050E000104602E0506000E0186039B102680B1A07
:1050F000934203D10B681A4402604968416010BDB5
:10510000AC000024FEF7A2FC00BF6548006800F474
:10511000003000B139E000BF00BF00BFBFF34F8FC8
:1051200000BF00BF00BF00BF00BF00BFBFF36F8F55
:1051300000BF00BF00BF00205A49086000BF00BF89
:1051400000BFBFF34F8F00BF00BF00BF00BF00BF55
:1051500000BFBFF36F8F00BF00BF00BF50480068A3
:1051600040F400304E49086000BF00BF00BFBFF3ED
:105170004F8F00BF00BF00BF00BF00BF00BFBFF325
:105180006F8F00BF00BF00BF00BF00BF444B1B6854
:1051900003F4803303B148E00023414C70342360B2
:1051A00000BF00BF00BFBFF34F8F00BF00BF00BFF5
:1051B000231F1868C0F34E3100BFC0F3C90200BFFF
:1051C00043F6E07303EA41134FF0404404EA82746B
:1051D0002343344C1034236000BF00BF131EA2F1E0
:1051E0000102EDD10B1EA1F10101E6D100BF00BF0C
:1051F00000BFBFF34F8F00BF00BF00BF284B1B682D
:1052000043F48033264C236000BF00BF00BFBFF3D0
:105210004F8F00BF00BF00BF00BF00BF00BFBFF384
:105220006F8F00BF00BF00BF00BFFBF7EBFDFFF7B4
:1052300087F9FEF773FCFEF7DDFBFFF723F86FF04D
:105240007F40FEF7FDFAFEF713F817A000F060F9B3
:105250006420FBF7CFFBFEF723FC6420FBF7CAFBBF
:10526000FEF76CFE18B913A000F052F902E015A089
:1052700000F04EF96420FBF7BDFB6420FBF7BAFB9E
:1052800013A000F045F96420FBF7B4FB07E04FF4EE
:1052900000511C48FBF78EFD6420FBF7ABFBF6E7E3
:1052A00014ED00E050EF00E0696E69742E2E2E2E92
:1052B0002E2E0000534452414D2053554343455335
:1052C00053000000534452414D204552524F52006A
:1052D00053797374656D20696E697469616C697A5C
:1052E0006564207375636365737366756C6C792E82
:1052F00020416C6C206D6F64756C6573204F4B2E74
:105300000000000000080258F0B50B30154D20F0E9
:1053100007010024144A0FE003688B420BD38B4231
:1053200005D95E1A43184768C3E9006700E043687F
:10533000136002C004E0021D10680028ECD1204672
:10534000002802D1286808B10020F0BD064A0748AD
:105350001060074A121A22F00702C0E90024012057
:105360002860D7E7B0000024AC0000247C0A0024A9
:10537000780C00242DE9F04105460E461746984664
:105380001E480068082810DA1D4909681B4A12687F
:105390008818C11700EB5171C910A0EBC104174860
:1053A0000068401C154908600CE015480468014677
:1053B0000968481CC11700EB5171C910A0EBC1016D
:1053C0000F4A116004EBC40101EB04110D4A881867
:1053D00018222946FAF7AEFF002004EBC40101EBC6
:1053E0000411084A1144087607480655074807552E
:1053F000074840F82480BDE8F0810000A8000024A0
:10540000A40000244C090024940000249C000024E3
:10541000140A00242DE9F04387B06FF07F40FEF7B7
:105420000FFAFDF725FF3348FEF704FA002559E08F
:10543000314909684819C11700EB5171C910A0EB37
:10544000C10405EB850086000020FEF70DFA04EB91
:10545000C40000EB0410294BC218B1B20020FDF7C4
:10546000A3FF2748005DF0B11C216846FAF74BFF07
:105470002448025D04EBC40000EB04101F4BC1186C
:105480006846FAF727FF00201E49095D0DF8010064
:105490001D4951F82400FEF7E7F9B1B26A46002031
:1054A000FDF782FF00BF601CC11700EB5171C910EE
:1054B000A0EBC10705F1010814480068804502D03F
:1054C0000F48C05D68B106F113090020FEF7CCF962
:1054D0001FFA89F31FFA89F1EF220020FDF780FF00
:1054E00000BF6D1C094800688542A1DB07B0BDE81C
:1054F000F083000068000024A40000244C0900246C
:10550000940000249C000024140A0024A800002415
:1055100010B5044622464FF47F0102A0FEF78CFF2F
:1055200010BD0000535953000000000001020304A5
:105530000102030406070809000000000000FC0740
:105540000400FC031402A40166009E070000000092
:10555000B7B40000000000000000000000000000E0
:105560000000000000000000000000006000FE07D6
:10557000FA031601FF0FFC030402FC030000000005
:10558000BFCD00000000000000000000000000008F
:1055900000000000000000000000000000017F018A
:1055A00084013F014C01F6070501040100000000E1
:1055B000BFC6000000000000000000000000000066
:1055C0000000000000000000000000000000840057
:1055D000FF078400FC032703C40037070000000016
:1055E000BCBC000000000000000000000000000043
:1055F00000000000000000000000000000000000AB
:10560000000000000000000000000000000000009A
:10561000000000000000000000000000000000008A
:10562000000000000000000000000000000000007A
:10563000000000000000000000000000000000006A
:10564000000000000000000000000000000000005A
:10565000000000000000000000000000000000004A
:10566000000000000000000000000000000000003A
:10567000000000000000000000000000000000002A
:10568000000000000000000000000000000000001A
:10569000000000000000000000000000000000000A
:1056A00000000000000000000000000000000000FA
:1056B00000000000000000000000000000000000EA
:1056C00000000000000000000000000000000000DA
:1056D00000000000000000000000000000000000CA
:1056E00000000000000000000000000000000000BA
:1056F00000000000000000000000000000000000AA
:105700000000000000000000000000000000000099
:105710000000000000000000000000000000000089
:10572000FC1F0400FC0F14082404640286016207B5
:105730001D38000000000000B7B4000000000000A9
:105740000000000000000000000000000000000059
:105750000000000000000000000000000000000049
:10576000C000FE1FF2071802E6011F3EF8070804FA
:10577000F807000000000000BFCD0000000000009E
:105780000000000000000000000000000000000019
:105790000000000000000000000000000000000009
:1057A0000008BE09080BFE089809EC3F0A08080823
:1057B0000808000000000000BFC600000000000054
:1057C00000000000000000000000000000000000D9
:1057D00000000000000000000000000000000000C9
:1057E0000402FF3F0402E41F4C10870804078407EB
:1057F0007738000000000000BCBC00000000000082
:105800000000000000000000000000000000000098
:105810000000000000000000000000000000000088
:105820000000000000000000000000000000000078
:105830000000000000000000000000000000000068
:105840000000000000000000000000000000000058
:105850000000000000000000000000000000000048
:105860000000000000000000000000000000000038
:105870000000000000000000000000000000000028
:105880000000000000000000000000000000000018
:105890000000000000000000000000000000000008
:1058A00000000000000000000000000000000000F8
:1058B00000000000000000000000000000000000E8
:1058C00000000000000000000000000000000000D8
:1058D00000000000000000000000000000000000C8
:1058E00000000000000000000000000000000000B8
:1058F00000000000000000000000000000000000A8
:105900000000000000000000000000000000000097
:105910000000000000000000000000000000000087
:105920000000000000000000000000000000000077
:105930000000000000000000000000000000000067
:105940000000000000000000000000000000000057
:105950000000000000000000000000000000000047
:105960000000000000000000000000000000000037
:105970000000000000000000000000000000000027
:105980000000000000000000000000000000000017
:105990000000000000000000000000000000000007
:1059A0000000000000000000E003F81F00080000F5
:1059B000080000F8FF0148800188C0000861000865
:1059C0003600041C0084E3007200070000000000A1
:1059D00000000000B7B4000000000000000000005C
:1059E00000000000000000000000000000000000B7
:1059F00000000000000000000000000000000000A7
:105A00000000000000000000000000000000000096
:105A10000000000000000000000000000000000086
:105A20000100000300FEFF01620001F87F007E30EC
:105A300000800F007FF003F87F00084000F87F002F
:105A4000084000000000000000000000BFCD000082
:105A50000000000000000000000000000000000046
:105A60000000000000000000000000000000000036
:105A70000000000000000000000000000000000026
:105A80000000000000000000000000000000000016
:105A900000000000000000E040001E4600104C0026
:105AA000105800FE4300104600784C00DC40001403
:105AB000F003924F00104000104000000000000072
:105AC00000000000BFC60000000000000000000051
:105AD00000000000000000000000000000000000C6
