:020000040800F2
:100000003006002001010008090100080B0100086A
:100010000D0100080F010008110100080000000098
:1000200000000000000000000000000013010008B4
:100030001501000800000000170100081901000860
:100040001B0100081B0100081B0100081B01000820
:100050001B0100081B0100081B0100081B01000810
:100060001B0100081B0100081B0100081B01000800
:100070001B0100081B0100081B0100081B010008F0
:100080001B0100081B0100081B0100081B010008E0
:100090001B0100081B0100081B0100081B010008D0
:1000A0001B0100081B0100081B0100081B010008C0
:1000B000CD0A00081B0100081B0100081B010008F5
:1000C0001B0100081B0100081B0100081B010008A0
:1000D0001B0100081B0100087D0C00081B01000823
:1000E0001B0100081B0100081B010008DFF80CD0F1
:1000F00000F018FA00480047B51900083006002043
:100100000648804706480047FEE7FEE7FEE7FEE7B1
:10011000FEE7FEE7FEE7FEE7FEE7FEE76D0A000802
:10012000ED00000830B50B460146002020220124D6
:1001300009E021FA02F59D4205D303FA02F5491BB5
:1001400004FA02F52844151EA2F10102F1DC30BDCB
:100150002DE9F05F0546002092469B4688460646FC
:10016000814640241BE0284641464746224600F08F
:10017000FAF953465A46C01A914110D3114618460F
:10018000224600F0E1F92D1A67EB01084F4622469E
:100190000120002100F0D8F917EB00094E41201E84
:1001A000A4F10104DFDC484631462A464346BDE857
:1001B000F09F2DE9FE4F804681EA0300C00F0C46F8
:1001C000009021F0004123F00045B8EB0200A94166
:1001D00005D24046214690461C460B46024623F077
:1001E0000040104347D0270DC7F30A00C3F30A515C
:1001F0000290401A019040286BDAC3F3130040F4D8
:10020000801B0098924620B10023D2EB030A63EBD7
:100210000B0B01985946C0F14002504600F094F98A
:1002200006460D4650465946019A00F0ACF910EBCF
:1002300008006141002487EA115284EAE7731A43F7
:1002400040D0009A62B3019A012A4FEA075215DCA6
:10025000001B61EB02014FF0004202EA0752CDE9B8
:100260000042001C41F5801132462B4600F0ACF9EB
:1002700003B0BDE8F08F40462146F9E7001B61EB73
:100280000201001C41F5801300185B412018A2F503
:10029000001747EB030140EAD570B6196D4111E034
:1002A0006D084FEA360645EAC0754FEA0752001B53
:1002B00061EB0201001C41F5801149084FEA300052
:1002C0000019514132462B4603B0BDE8F04F00F013
:1002D0006CB90098012240000023D0EB020263EBCE
:1002E000E073009821464FEAE074B8EB000061EB40
:1002F0000401E9E783F000435BE781F0004158E740
:100300002DE9FE4F81EA030404F0004421F000418E
:1003100000944FF0000B23F0004350EA01045ED03C
:1003200052EA03045BD0C3F30A54C1F30A552C44C8
:10033000A4F2F3340194A0FB0254C1F3130141F47D
:100340008011C3F3130343F4801301FB024400FB49
:10035000034E840A970A44EA815447EA8357A4FB70
:10036000076802958D0A05FB07854FEA932C04FB6D
:100370000C542705029D4FEA065847EA1637B5EB9D
:1003800008056EEB070C870E920E47EA811742EACA
:100390008312A7FB0201B6EB0B0164EB00042B0DEB
:1003A00043EA0C335E1844EB1C50DA465146E7FB37
:1003B0000201C5F313044FEA0B3343EA14534FEA27
:1003C0000432019C43EA0603A4F10C040294009C4D
:1003D000CDE900B400F0F8F803B0BDE8F08F0020DC
:1003E0000146F9E72DE9F04D81EA030404F0004BE2
:1003F00021F0004514464FF0000A23F0004150EA76
:10040000050220D054EA01021DD0C5F30A57024666
:10041000C5F31303C1F31300C1F30A5640F480156A
:1004200043F48013A7EB0608101BD64608F2FD38EC
:1004300073EB050002D308F1010801E092185B415B
:10044000B8F1000F03DA00200146BDE8F08D00206E
:100450004FF48011064684460EE0171B73EB050728
:1004600005D3121B63EB050306434CEA010C490854
:100470004FEA300092185B4150EA0107EDD152EA91
:10048000030012D082EA040083EA0501084305D084
:10049000101BAB4106D20122002306E000224FF0E0
:1004A000004302E06FF0010253101AEB06004CEB20
:1004B000085110EB0A0041EB0B01BDE8F04D00F0D4
:1004C00074B8C1F30A52C1F3130140F2FF3341F48F
:1004D00080119A4202DA00200146704740F233430D
:1004E0009A42A2F2334202DC524200F03CB800F0E1
:1004F0002BB8000030B5041E71F1000404DB4FF08E
:100500000044404264EB0101141E73F1000405DB5A
:100510001C464FF00043524263EB0403994208BF6C
:10052000904230BD064C074D06E0E06840F0010304
:1005300094E8070098471034AC42F6D3FFF7DAFD91
:10054000D41D0008F41D0008202A04DB203A00FA1C
:1005500002F1002070479140C2F1200320FA03F31A
:10056000194390407047202A04DB203A21FA02F018
:100570000021704721FA02F3D040C2F120029140DD
:10058000084319467047202A06DBCB17203A41FA68
:1005900002F043EAE07306E041FA02F3D040C2F110
:1005A0002002914008431946704710B5141E73F19C
:1005B000000408DA401C41F1000192185B411A4323
:1005C00001D120F0010010BD2DE9F04D92469B466F
:1005D00011B1B1FA81F202E0B0FA80F22032904615
:1005E000FFF7B2FF04460F4640EA0A0041EA0B015A
:1005F00053465A46084313D0114653EA010019D016
:10060000C8F140025046FFF7AEFF05460E46504681
:1006100059464246FFF798FF084305D0012004E001
:1006200020463946BDE8F08D0020054346EAE076D5
:100630002C4337430A986305E40AA0EB0800002224
:10064000FD0A44EA47540A3002D500200146E9E792
:10065000010510196941DDE9084500196941BDE846
:10066000F04DA2E72DE9F0410246002500260020CA
:1006700000230024002791F803C00CF00F0591F827
:1006800003C00CF0100CBCF1000F03D091F802C0B5
:100690004CEA050591F800C0BCF1000F31D0146898
:1006A00000202BE04FF0010C0CFA00F3B1F800C071
:1006B0000CEA03069E4220D183004FF00F0C0CFA87
:1006C00003F7BC4305FA03FC4CEA040491F803C0A9
:1006D000BCF1280F06D14FF0010C0CFA00FCC2F857
:1006E00014C00AE091F803C0BCF1480F05D14FF0E7
:1006F000010C0CFA00FCC2F810C0401C0828D1D331
:100700001460B1F800C0BCF1FF0F34DD5468002064
:100710002EE000F1080C4FF0010808FA0CF3B1F8D4
:1007200000C00CEA03069E4221D183004FF00F0C5B
:100730000CFA03F7BC4305FA03FC4CEA040491F8F5
:1007400003C0BCF1280F05D100F1080C08FA0CF821
:10075000C2F8148091F803C0BCF1480F07D100F132
:10076000080C4FF0010808FA0CF8C2F81080401C81
:100770000828CED35460BDE8F081016170474FF680
:10078000FF710180022181700421C17070470AB19C
:10079000016100E04161704770B5002100230F2224
:1007A000C47804B3154C246804F4E064C4F5E06430
:1007B000210AC1F10403CA40447804FA03F18478A1
:1007C0001440214309010E4C0678A155047804F029
:1007D0001F050124AC4005786D11AD0005F1E02541
:1007E000C5F8004109E0047804F01F050124AC407D
:1007F000044D0678761145F8264070BD0CED00E0FA
:1008000000E400E080E100E029B1064AD269024339
:10081000044BDA6104E0034AD2698243014BDA6196
:10082000704700000010024029B1064A12690243D5
:10083000044B1A6104E0034A12698243014B1A61B6
:10084000704700000010024029B1064A9269024335
:10085000044B9A6104E0034A92698243014B9A6116
:10086000704700000010024029B1064AD2680243D6
:10087000044BDA6004E0034AD2688243014BDA6039
:10088000704700000010024030B500210022002413
:1008900000232D4D6D6805F00C0121B1042905D010
:1008A000082923D105E0294D056022E0274D056088
:1008B0001FE0254D6D6805F47012234D6D6805F439
:1008C0008034022505EB92421CB9214D5543056049
:1008D0000BE01D4D6D6805F400351DB11C4D5543F1
:1008E000056002E0194D5543056002E0174D0560B3
:1008F00000BF00BF144D6D6805F0F0010909154DEA
:100900006B5C0568DD4045600F4D6D6805F4E06186
:10091000090A104D6B5C4568DD4085600A4D6D68C5
:1009200005F46051C90A0B4D6B5C4568DD40C5603C
:10093000054D6D6805F44041890B074D6B5CC5683A
:10094000B5FBF3F5056130BD0010024000127A00DE
:1009500000093D001C0000202C00002010B500F014
:1009600001F810BD0CB500200190009033480068DC
:1009700040F480303149086000BF3048006800F41E
:10098000003000900198401C0190009818B901981F
:10099000B0F5A06FF1D12948006800F4003010B123
:1009A0000120009001E0002000900098012843D130
:1009B0002348006840F0100021490860084600689C
:1009C00020F0070008600846006840F00200086058
:1009D0001A48406819494860084640684860084617
:1009E000406840F4806048600846406820F47C100D
:1009F00048600846406840F4E810486008460068CF
:100A000040F08070086000BF0C48006800F0007083
:100A10000028F9D00948406820F0030007494860E1
:100A20000846406840F00200486000BF0348406844
:100A300000F00C000828F9D10CBD000000100240A5
:100A400000200240042808D14FF0E021096941F05C
:100A500004014FF0E022116107E04FF0E021096945
:100A600021F004014FF0E0221161704710B51348E6
:100A7000006840F0010011490860084640681049CC
:100A800008400E494860084600680E4908400B4976
:100A900008600846006820F4802008600846406826
:100AA00020F4FE0048604FF41F008860FFF756FFF7
:100AB0004FF000600449086010BD000000100240C3
:100AC0000000FFF8FFFFF6FE08ED00E010B5012181
:100AD000880700F01EF8012804D105480068401C72
:100AE000034908600121880700F004F810BD0000E8
:100AF00014000020CA430282704721B1028842F0EC
:100B00000102028004E002884FF6FE731A40028060
:100B1000704730B50246002000230024158A05EAFC
:100B20000103958905EA010413B10CB1012000E02D
:100B3000002030BD1AB183890B43838102E0838991
:100B40008B43838170470000002202881D4B98422E
:100B50000ED01D4B98420BD0B0F1804F08D01B4BEC
:100B6000984205D01A4B984202D01A4B984204D1B1
:100B70004FF68F731A404B881A43174B984207D091
:100B8000164B984204D04FF6FF431A40CB881A43C5
:100B900002808B8883850B8803850A4B98420BD093
:100BA000094B984208D00E4B984205D00D4B984205
:100BB00002D00D4B984201D10B7A03860123838228
:100BC00070470000002C0140003401400004004048
:100BD00000080040000C00400010004000140040DD
:100BE0000040014000440140004801400FB470B58E
:100BF0009CB0FF2521A80190652102A8019B209AA5
:100C000000F0A4F906460020019000240CE002A8A0
:100C1000015D194800F089F900BF8021164800F0F5
:100C2000B7F80028F9D0641CB442F0DB294612481A
:100C300000F07BF900BF80210F4800F0A9F80028E0
:100C4000F9D029460C4800F070F900BF80210A480D
:100C500000F09EF80028F9D02946074800F065F911
:100C600000BF8021044800F093F80028F9D01CB0A0
:100C700070BC5DF814FB00000044004010B540F269
:100C80002551094800F091F801280BD1064800F0E1
:100C900047F9C4B2204601F07FF840F225510248DE
:100CA00000F00DF810BD00000044004001F4007297
:100CB000B2F5007F00D100BFCA430280704710B573
:100CC0000022002340F66A14A14200D100BF0A129C
:100CD00001249440A3B2DC43048010BD21B1828979
:100CE00042F40052828104E082894DF6FF731A407B
:100CF0008281704710B504462048844209D1012101
:100D00008803FFF7B1FD00214FF48040FFF7ACFDF1
:100D100032E01B48844209D101214804FFF784FDD9
:100D200000214FF40030FFF77FFD25E01548844295
:100D300009D101218804FFF777FD00214FF48020BD
:100D4000FFF772FD18E01048844209D10121C80460
:100D5000FFF76AFD00214FF40020FFF765FD0BE06F
:100D60000A48844208D101210805FFF75DFD0021F2
:100D70004FF48010FFF758FD10BD0000003801400F
:100D80000044004000480040004C0040005000403B
:100D900002460020B1F5007F00D100BF13880B4050
:100DA0000BB1012000E00020704770B5024600241E
:100DB00000230025002040F66A16B14200D100BF92
:100DC000C1F3421501F01F03012606FA03F3012DBA
:100DD00002D19689334006E0022D02D1168A3340B3
:100DE00001E0968A33400C12012606FA04F41688B4
:100DF000344013B10CB1012000E0002070BDF0B50B
:100E00000346002400260025002040F66A17B94258
:100E100000D100BF1846C1F3421401F01F0601279C
:100E200007FA06F5012C01D10C3004E0022C01D1A7
:100E3000103000E014301AB107682F43076002E059
:100E40000768AF430760F0BD2DE9F04786B005465F
:100E50000E460024A24600BFA1460027B08900B17B
:100E600000BF2F462C8A4CF6FF700440F0880443E4
:100E70002C82AC894EF6F3100440B08831890843C7
:100E8000718908430443AC81AC8A4FF6FF400440AB
:100E9000B0890443AC8201A8FFF7F6FC1F488742E3
:100EA00002D1DDF810A001E0DDF80CA0A88900F463
:100EB000004040B10AEBCA0000EB0A10316849005B
:100EC000B0FBF1F807E00AEBCA0000EB0A1031684A
:100ED0008900B0FBF1F86420B8FBF0F004012009B0
:100EE000642101FB1089A88900F4004040B1322040
:100EF00000EBC900B0FBF1F000F00700044308E08C
:100F0000322000EB09106421B0FBF1F000F00F007B
:100F100004432C8106B0BDE8F08700000038014092
:100F200001468888C0F308007047C1F30802828038
:100F300070474FF41651016000218180C18001810A
:100F40000C21418100218181704700007CB504465D
:100F500000201D46164600290BD0491ECDE9004150
:100F6000044B6A462946304600F0D8F8009A002122
:100F700011707CBD4B18000802E008C8121F08C1A0
:100F8000002AFAD170477047002001E001C1121F0A
:100F9000002AFBD1704700002DE9FF5F82B00021DD
:100FA000DDE90430020DDDF840B0034318D044F60B
:100FB0001050A2F2FF3242431514119801281FD09D
:100FC000A5EB0B00401C5FEA000A4FF000064E4FF5
:100FD000DFF83891B046504615D5CAF1000413E049
:100FE000119801244AA3012801D16FEA0B0102984C
:100FF000119AC0E90031C0E9024206B0BDE8F09F95
:10100000CBF10000DFE704460021404A491842EBDB
:101010000450CDE9001012E0E00707D032463B460D
:1010200040464946FFF76CF98046894632463B46C2
:1010300010461946FFF764F906460F466410002C67
:10104000EAD1DDE90401DDE90023BAF1000F06DA97
:10105000FFF756F942464B46FFF752F905E0FFF716
:10106000C1F942464B46FFF7BDF904460E46002241
:10107000284BFFF73FFA03D84FF0FF30014607E057
:101080000022254B20463146FFF793F8FFF719FA67
:10109000102409E0002C0ADB0A220023FFF758F88D
:1010A000039B30321A55641E50EA0102F2D1641CCF
:1010B000039AC4F111031444119A012A03D00122A6
:1010C00008430DD10AE0084304D000204FF0110B73
:1010D000119072E7A3EB0B056D1E0DE05B4504DD7F
:1010E0004FF0000205F1010504E003DA4FF00002C1
:1010F000A5F10105002AECD002981199C0E902314E
:10110000C0E9004579E70000000014400000F03F0E
:10111000300000000000F0430000E03F2DE9FF4FE9
:1011200095B09B468946064600250FE2252877D1D3
:1011300000242746F84A0121059400E0044316F8EC
:10114000013F203B01FA03F01042F7D130782A2802
:1011500011D06FF02F033078A0F13002092A16D891
:10116000059A44F0020402EB820203EB42021044AF
:10117000761C0590EFE759F8042B0592002A03DA54
:10118000504244F40054059044F00204761C307838
:101190002E2816D116F8010F44F004042A280DD089
:1011A0006FF02F023078A0F13003092B09D807EB3C
:1011B000870302EB4303C718761CF3E759F8047B57
:1011C000761C30786C280FD006DC4C2817D06828A5
:1011D0000DD06A2814D104E0742810D07A280FD1D9
:1011E0000DE044F400140AE044F4801401E044F4F7
:1011F00040147278824202D104F58014761C761C69
:10120000307866280BD013DC582877D009DC00280A
:1012100075D04528F6D04628F4D047281AD19DE14C
:1012200018E0632835D0642879D0652812D195E17B
:10123000702873D008DC6728F1D069286FD06E2839
:101240000DD06F2806D1B5E073282CD0752875D045
:10125000782874D05A46179990476D1C75E1C4F3ED
:101260000250022809D003280DD0D9F80010042814
:101270000DD00D6009F1040967E1D9F80010EA17F3
:10128000C1E90052F6E7D9F800100D80F2E70D70C1
:10129000F0E719F8041B8DF8001000208DF801000C
:1012A000EA46012003E059F804AB4FF0FF30610734
:1012B0004FF0000102D40DE008F101018846B94267
:1012C0000FDA8045F8DB1AF808100029F4D108E09D
:1012D00008F1010188468142FADB1AF8081000295A
:1012E000F6D105985B46A0EB080721463846179AC9
:1012F00000F094FA284400EB080507E04DE029E1EE
:101300000DE01AF8010B5A4617999047B8F10108F9
:10131000F7D25B4621463846179A13E142E00A228B
:101320000092C4F302524FF0000A022A08D059F882
:1013300004CB032A4FEAEC710AD00DE029E02AE041
:1013400009F1070121F00702F2E802C1914609E024
:101350000FFA8CFC4FEAEC71042A03D14FFA8CFC93
:101360004FEAEC71002907DA0A460021DCF1000C93
:1013700061EB02012D2202E0220504D52B228DF81B
:101380000420012203E0E20701D02022F7E7904683
:1013900059E00A2102E010220DE010214FF0000A6E
:1013A00000910BE010224FF0000A44F004040827DB
:1013B000009203E008224FF0000A0092C4F30252A8
:1013C000022A05D059F804CB0021032A08D009E0ED
:1013D00009F1070121F00702F2E802C1914605E098
:1013E0001FFA8CFC042A01D10CF0FF0C4FF000080E
:1013F000220728D5702806D0009B83F0100353EAFB
:101400000A0305D00EE040228DF80420012208E0F6
:101410005CEA010206D030228DF804208DF8050028
:1014200002229046009B83F0080353EA0A030AD184
:101430005CEA010201D1620705D530228DF8042053
:101440004FF001087F1E582804D034A003900EA846
:1014500002900DE036A0F9E753466046009AFEF789
:1014600077FE84460398825C0298401E02900270C8
:101470005CEA0100F0D1029806A9081A00F1200ADE
:10148000600702D524F4803400E00127574502DDCF
:10149000A7EB0A0000E0002000EB0A01009005988D
:1014A0004144401A0590E00306D45B462146179A52
:1014B000059800F0B3F90544002706E001A85A4654
:1014C000C05D179990476D1C7F1C4745F6DBE00314
:1014D0000CD55B462146179A059800F09FF9054404
:1014E00004E030205A46179990476D1C0099481E19
:1014F00000900029F5DC08E0029802995A4600782D
:10150000491C0291179990476D1CBAF10001AAF18C
:10151000010AF1DC65E100000928010030313233B5
:10152000343536373839616263646566000000001F
:101530003031323334353637383941424344454609
:101540000000000000F058F90544761C30780028AF
:101550007FF4ECAD19B02846BDE8F08F620700D4E7
:10156000062709F1070222F0070CFCE80223E146F6
:1015700003F000485FEA080C02D00FF2702C0DE077
:101580005FEA045C02D50FF2682C07E05FEAC47CD6
:1015900002D00FF2602C01E0AFF2700C4FF0FF3878
:1015A00023F00043CDF850C065280CD006DC452858
:1015B00009D046281DD047283DD13DE0662818D0E7
:1015C00067287ED138E00021112F01DB112000E0D7
:1015D000781CCDE9000106A90EA8FFF7DDFCDDE9C6
:1015E0000F010E9A03910021009207F1010A049164
:1015F0004DE04FF000400097CDE9011006A90EA87C
:10160000FFF7CAFCDDE90F0203920E9B119900223D
:10161000DDF80CA00093049211B9791C00EB010ACB
:10162000B7EB0A0004D4C0F1FF3007F1010A0490BF
:10163000AAEB0700019044E0012F00DA0127002106
:10164000112F01DD112000E03846CDE9000106A987
:101650000EA8FFF7A1FCDDE90F010E9A039100210E
:1016600004910092BA4621070CD40399514500DA3F
:101670008A46BAF1010F05DD009AAAF10101515C19
:10168000302908D0B84202DA10F1040F06DA01213D
:10169000CDE9011015E0AAF10101E9E7002805DC18
:1016A000049901440491AAEB000102E0411C514558
:1016B00000DD8A460499401A401C01904FF000401A
:1016C0000290200704D40198504501DBCDF8048036
:1016D00000208DF84F0002980DF14F07B0F1004F38
:1016E00025D02B200E9002984FF0020800280CDA2B
:1016F000404202902D200E9007E00A210298FEF74A
:1017000011FD3031029007F8011DB8F10001A8F178
:101710000108F2DC02980028EFD1791E0E980870BB
:10172000307800F0200040F0450007F8020D12A8C4
:10173000C01B00F107081498007800B1012000EBED
:101740000A01019801EBE07105984144401A401EDE
:101750000590E00306D45B462146179A059800F0F1
:101760005DF805441498007818B15A4617999047C7
:101770006D1CE00324D55B462146179A059800F0BE
:101780004DF805441CE00498002807DBDDE903015F
:10179000884203DD0098405C179901E017993020DA
:1017A0005A469047049805F10105401C04900198A1
:1017B000401E019004D12E205A46179990476D1C67
:1017C000BAF10001AAF1010ADDDC05E017F8010B0E
:1017D0005A46179990476D1CB8F10001A8F101080D
:1017E000F4DC5B462146179A0598ABE62D00000015
:1017F0002B000000200000002DE9F04104460025E8
:101800001E461746880404D405E039462020B04718
:101810006D1C641EF9D52846BDE8F0812DE9F04124
:10182000044600251E469046C80301D5302700E037
:101830002027880404D505E041463846B0476D1C92
:10184000641EF9D52846BDE8F0814A68002A06D012
:101850000A68531C0B6010704868401E486070474F
:1018600010B56FF00400FFF7EDF804480068044974
:10187000B0FBF1F00349086010BD0000000000203B
:1018800000127A001800002010B504464FF47A7157
:1018900004FB01F000F002F810BD000010B5184B79
:1018A0001B6800FB03F2012805D1A2F108034FF0E9
:1018B000E024636104E0A2F10A034FF0E0246361D5
:1018C00000234FF0E024A36123461B6943F001038A
:1018D000236100BF4FF0E023196901F001031BB140
:1018E00001F48033002BF5D04FF0E0231B6923F087
:1018F00001034FF0E02423610023A36110BD000029
:101900001800002010B5024611488088904202DC81
:1019100000F02CF810BD002315E00D48808810B9A8
:1019200000F024F8F6E70A480088401C4FF4FA71EA
:1019300090FBF1F401FB14000549088008468088FB
:10194000401E88805B1C9342E7DB00BFE2E700009B
:1019500030000020014880887047000030000020DF
:101960000149096801607047140000200020024905
:1019700008804880888070473000002008B5012129
:101980001020FEF761FF4FF40050ADF8000010206A
:101990008DF8030003208DF8020069460448FEF725
:1019A00061FEBDF800100248FEF7E7FE08BD00002A
:1019B0000010014008B50020009000250024FFF72A
:1019C0004FFFFFF7DBFF4FF4E13000F017F94FF462
:1019D000E13000F07BF9FFF7C9FF00F0DFF883E0AA
:1019E0006846FFF7BDFF0098401BB0F57A7F12D321
:1019F000009D21463DA0FFF7F9F821463EA0FFF7E4
:101A0000F5F842A0FFF7F2F83220FFF73DFF42A0C1
:101A1000FFF7ECF8641C62E0FFF79CFF07285ADB35
:101A2000002000F0A9F8552855D1042000F0A4F8B2
:101A3000FF2850D1052000F09FF8FF284BD1062049
:101A400000F09AF8FF2846D1012000F095F801280F
:101A500023D1032000F090F808B132A000E032A0BA
:101A60000646022000F088F80746324639462FA085
:101A7000FFF7BCF8022000F07FF840BB032000F025
:101A80007BF808B1012000E00020064632464FF402
:101A900000512C48FEF77BFE19E0012000F06CF8A5
:101AA000022807D100F068F80646314626A0FFF765
:101AB0009DF80CE0012000F05FF8032807D1022018
:101AC00000F05AF80646314625A0FFF78FF80720A8
:101AD000FFF718FF03E00120FFF714FF03E0FFF713
:101AE00039FF072898DA00BF7AE700006E302E76BB
:101AF000616C3D256400000074302E7478743D22C2
:101B0000CFD6D4DACAC7256422000000636C6963AB
:101B10006B2062302C310000636C69636B20623093
:101B20002C3000006F6E00006F6666006D73672ECC
:101B30007478743D226C65642025642069732025C7
:101B400073220000001001406D73672E7478743D9D
:101B50002268302E76616C20697320256422000093
:101B60006D73672E7478743D2268312E76616C2017
:101B7000697320256422000010B5014606480088DC
:101B800008444FF4FA7390FBF3F403FB140082B2A1
:101B90000148801D805C10BD300000201FB5012170
:101BA0000846FEF731FE0020ADF80A00ADF8060049
:101BB00040F2E730ADF808004720ADF8040001A975
:101BC0004FF08040FEF7C0FF1C208DF80000012080
:101BD0008DF8030000208DF8010001208DF802002F
:101BE0006846FEF7D9FD012211469007FEF7A2FFD5
:101BF00001218807FEF781FF1FBD000010B586B0E8
:101C00000446012144F20500FEF71EFE05A8FEF77A
:101C1000B6FD4FF40070ADF8140018208DF81700D1
:101C200003208DF8160005A92648FEF71BFD05A820
:101C3000FEF7A5FD4FF48060ADF8140004208DF888
:101C4000170005A91F48FEF70DFD01218803FEF7C7
:101C5000FBFD1D48FFF74EF801A8FFF76AF9019454
:101C60000020ADF80800ADF80A00ADF80C000C201B
:101C7000ADF80E000020ADF8100001A91248FFF7E2
:101C8000E3F820211048FFF711F810210E48FFF764
:101C90000DF8012240F225510B48FFF7B0F8012161
:101CA0000948FFF71BF825208DF8000001208DF86A
:101CB00001008DF802008DF803006846FEF76CFD08
:101CC00006B010BD000801400038014010B586B0D4
:101CD000044601210520FEF7B7FD05A8FEF74FFDDC
:101CE0000420ADF8140018208DF8170003208DF89B
:101CF000160005A92648FEF7B5FC05A8FEF73FFD2E
:101D00000820ADF8140004208DF8170005A920481C
:101D1000FEF7A8FC01214804FEF776FD1D48FEF7FA
:101D2000E9FF01A8FFF705F901940020ADF80800CC
:101D3000ADF80A00ADF80C000C20ADF80E00002044
:101D4000ADF8100001A91348FFF77EF820211148D3
:101D5000FEF7ACFF10210F48FEF7A8FF012240F26A
:101D600025510C48FFF74BF801210A48FEF7B6FF52
:101D700026208DF8000000208DF8010001208DF84C
:101D800002008DF803006846FEF706FD06B010BDA0
:101D900000080140004400400D498988B1F5FA7FF0
:101DA00000DB70470A494A88891D8854891F498881
:101DB000491C4FF4FA7291FBF2F302FB1311044A2F
:101DC000518011468988491C918000BFE9E70000D5
:101DD00030000020F41D000800000020300000004A
:101DE000780F0008241E00083000002000060000C4
:101DF000880F000800A24A04000000000000000054
:101E000001020304060708090000000000000000AA
:101E10000000000001020304010203040607080990
:041E200002040608AA
:04000005080000ED02
:00000001FF
